{
	"contracts/SampleTokenSale.sol": {
		"TokenSale": {
			"abi": [
				{
					"inputs": [
						{
							"internalType": "address",
							"name": "_token",
							"type": "address"
						}
					],
					"stateMutability": "nonpayable",
					"type": "constructor"
				},
				{
					"inputs": [],
					"name": "purchaseACoffe",
					"outputs": [],
					"stateMutability": "payable",
					"type": "function"
				},
				{
					"inputs": [],
					"name": "token",
					"outputs": [
						{
							"internalType": "contract ERC20",
							"name": "",
							"type": "address"
						}
					],
					"stateMutability": "view",
					"type": "function"
				},
				{
					"inputs": [],
					"name": "tokenPriceInWei",
					"outputs": [
						{
							"internalType": "uint256",
							"name": "",
							"type": "uint256"
						}
					],
					"stateMutability": "view",
					"type": "function"
				}
			],
			"devdoc": {
				"kind": "dev",
				"methods": {},
				"version": 1
			},
			"evm": {
				"assembly": "    /* \"contracts/SampleTokenSale.sol\":119:798  contract TokenSale{... */\n  mstore(0x40, 0x80)\n    /* \"contracts/SampleTokenSale.sol\":176:183  1 ether */\n  0x0de0b6b3a7640000\n    /* \"contracts/SampleTokenSale.sol\":146:183  uint public tokenPriceInWei = 1 ether */\n  0x00\n  sstore\n    /* \"contracts/SampleTokenSale.sol\":244:345  constructor(address _token){... */\n  callvalue\n  dup1\n  iszero\n  tag_1\n  jumpi\n  0x00\n  dup1\n  revert\ntag_1:\n  pop\n  mload(0x40)\n  sub(codesize, bytecodeSize)\n  dup1\n  bytecodeSize\n  dup4\n  codecopy\n  dup2\n  dup2\n  add\n  0x40\n  mstore\n  dup2\n  add\n  swap1\n  tag_2\n  swap2\n  swap1\n  tag_3\n  jump\t// in\ntag_2:\n    /* \"contracts/SampleTokenSale.sol\":295:305  msg.sender */\n  caller\n    /* \"contracts/SampleTokenSale.sol\":282:292  tokenOwner */\n  0x02\n  0x00\n    /* \"contracts/SampleTokenSale.sol\":282:305  tokenOwner = msg.sender */\n  0x0100\n  exp\n  dup2\n  sload\n  dup2\n  0xffffffffffffffffffffffffffffffffffffffff\n  mul\n  not\n  and\n  swap1\n  dup4\n  0xffffffffffffffffffffffffffffffffffffffff\n  and\n  mul\n  or\n  swap1\n  sstore\n  pop\n    /* \"contracts/SampleTokenSale.sol\":330:336  _token */\n  dup1\n    /* \"contracts/SampleTokenSale.sol\":316:321  token */\n  0x01\n  0x00\n    /* \"contracts/SampleTokenSale.sol\":316:337  token = ERC20(_token) */\n  0x0100\n  exp\n  dup2\n  sload\n  dup2\n  0xffffffffffffffffffffffffffffffffffffffff\n  mul\n  not\n  and\n  swap1\n  dup4\n  0xffffffffffffffffffffffffffffffffffffffff\n  and\n  mul\n  or\n  swap1\n  sstore\n  pop\n    /* \"contracts/SampleTokenSale.sol\":244:345  constructor(address _token){... */\n  pop\n    /* \"contracts/SampleTokenSale.sol\":119:798  contract TokenSale{... */\n  jump(tag_6)\n    /* \"#utility.yul\":88:205   */\ntag_8:\n    /* \"#utility.yul\":197:198   */\n  0x00\n    /* \"#utility.yul\":194:195   */\n  dup1\n    /* \"#utility.yul\":187:199   */\n  revert\n    /* \"#utility.yul\":334:460   */\ntag_10:\n    /* \"#utility.yul\":371:378   */\n  0x00\n    /* \"#utility.yul\":411:453   */\n  0xffffffffffffffffffffffffffffffffffffffff\n    /* \"#utility.yul\":404:409   */\n  dup3\n    /* \"#utility.yul\":400:454   */\n  and\n    /* \"#utility.yul\":389:454   */\n  swap1\n  pop\n    /* \"#utility.yul\":334:460   */\n  swap2\n  swap1\n  pop\n  jump\t// out\n    /* \"#utility.yul\":466:562   */\ntag_11:\n    /* \"#utility.yul\":503:510   */\n  0x00\n    /* \"#utility.yul\":532:556   */\n  tag_20\n    /* \"#utility.yul\":550:555   */\n  dup3\n    /* \"#utility.yul\":532:556   */\n  tag_10\n  jump\t// in\ntag_20:\n    /* \"#utility.yul\":521:556   */\n  swap1\n  pop\n    /* \"#utility.yul\":466:562   */\n  swap2\n  swap1\n  pop\n  jump\t// out\n    /* \"#utility.yul\":568:690   */\ntag_12:\n    /* \"#utility.yul\":641:665   */\n  tag_22\n    /* \"#utility.yul\":659:664   */\n  dup2\n    /* \"#utility.yul\":641:665   */\n  tag_11\n  jump\t// in\ntag_22:\n    /* \"#utility.yul\":634:639   */\n  dup2\n    /* \"#utility.yul\":631:666   */\n  eq\n    /* \"#utility.yul\":621:684   */\n  tag_23\n  jumpi\n    /* \"#utility.yul\":680:681   */\n  0x00\n    /* \"#utility.yul\":677:678   */\n  dup1\n    /* \"#utility.yul\":670:682   */\n  revert\n    /* \"#utility.yul\":621:684   */\ntag_23:\n    /* \"#utility.yul\":568:690   */\n  pop\n  jump\t// out\n    /* \"#utility.yul\":696:839   */\ntag_13:\n    /* \"#utility.yul\":753:758   */\n  0x00\n    /* \"#utility.yul\":784:790   */\n  dup2\n    /* \"#utility.yul\":778:791   */\n  mload\n    /* \"#utility.yul\":769:791   */\n  swap1\n  pop\n    /* \"#utility.yul\":800:833   */\n  tag_25\n    /* \"#utility.yul\":827:832   */\n  dup2\n    /* \"#utility.yul\":800:833   */\n  tag_12\n  jump\t// in\ntag_25:\n    /* \"#utility.yul\":696:839   */\n  swap3\n  swap2\n  pop\n  pop\n  jump\t// out\n    /* \"#utility.yul\":845:1196   */\ntag_3:\n    /* \"#utility.yul\":915:921   */\n  0x00\n    /* \"#utility.yul\":964:966   */\n  0x20\n    /* \"#utility.yul\":952:961   */\n  dup3\n    /* \"#utility.yul\":943:950   */\n  dup5\n    /* \"#utility.yul\":939:962   */\n  sub\n    /* \"#utility.yul\":935:967   */\n  slt\n    /* \"#utility.yul\":932:1051   */\n  iszero\n  tag_27\n  jumpi\n    /* \"#utility.yul\":970:1049   */\n  tag_28\n  tag_8\n  jump\t// in\ntag_28:\n    /* \"#utility.yul\":932:1051   */\ntag_27:\n    /* \"#utility.yul\":1090:1091   */\n  0x00\n    /* \"#utility.yul\":1115:1179   */\n  tag_29\n    /* \"#utility.yul\":1171:1178   */\n  dup5\n    /* \"#utility.yul\":1162:1168   */\n  dup3\n    /* \"#utility.yul\":1151:1160   */\n  dup6\n    /* \"#utility.yul\":1147:1169   */\n  add\n    /* \"#utility.yul\":1115:1179   */\n  tag_13\n  jump\t// in\ntag_29:\n    /* \"#utility.yul\":1105:1179   */\n  swap2\n  pop\n    /* \"#utility.yul\":1061:1189   */\n  pop\n    /* \"#utility.yul\":845:1196   */\n  swap3\n  swap2\n  pop\n  pop\n  jump\t// out\n    /* \"contracts/SampleTokenSale.sol\":119:798  contract TokenSale{... */\ntag_6:\n  dataSize(sub_0)\n  dup1\n  dataOffset(sub_0)\n  0x00\n  codecopy\n  0x00\n  return\nstop\n\nsub_0: assembly {\n        /* \"contracts/SampleTokenSale.sol\":119:798  contract TokenSale{... */\n      mstore(0x40, 0x80)\n      jumpi(tag_1, lt(calldatasize, 0x04))\n      shr(0xe0, calldataload(0x00))\n      dup1\n      0x2f8de810\n      eq\n      tag_2\n      jumpi\n      dup1\n      0xe7e78652\n      eq\n      tag_3\n      jumpi\n      dup1\n      0xfc0c546a\n      eq\n      tag_4\n      jumpi\n    tag_1:\n      0x00\n      dup1\n      revert\n        /* \"contracts/SampleTokenSale.sol\":146:183  uint public tokenPriceInWei = 1 ether */\n    tag_2:\n      callvalue\n      dup1\n      iszero\n      tag_5\n      jumpi\n      0x00\n      dup1\n      revert\n    tag_5:\n      pop\n      tag_6\n      tag_7\n      jump\t// in\n    tag_6:\n      mload(0x40)\n      tag_8\n      swap2\n      swap1\n      tag_9\n      jump\t// in\n    tag_8:\n      mload(0x40)\n      dup1\n      swap2\n      sub\n      swap1\n      return\n        /* \"contracts/SampleTokenSale.sol\":353:791  function purchaseACoffe() public payable{... */\n    tag_3:\n      tag_10\n      tag_11\n      jump\t// in\n    tag_10:\n      stop\n        /* \"contracts/SampleTokenSale.sol\":190:208  ERC20 public token */\n    tag_4:\n      callvalue\n      dup1\n      iszero\n      tag_12\n      jumpi\n      0x00\n      dup1\n      revert\n    tag_12:\n      pop\n      tag_13\n      tag_14\n      jump\t// in\n    tag_13:\n      mload(0x40)\n      tag_15\n      swap2\n      swap1\n      tag_16\n      jump\t// in\n    tag_15:\n      mload(0x40)\n      dup1\n      swap2\n      sub\n      swap1\n      return\n        /* \"contracts/SampleTokenSale.sol\":146:183  uint public tokenPriceInWei = 1 ether */\n    tag_7:\n      sload(0x00)\n      dup2\n      jump\t// out\n        /* \"contracts/SampleTokenSale.sol\":353:791  function purchaseACoffe() public payable{... */\n    tag_11:\n        /* \"contracts/SampleTokenSale.sol\":425:440  tokenPriceInWei */\n      sload(0x00)\n        /* \"contracts/SampleTokenSale.sol\":412:421  msg.value */\n      callvalue\n        /* \"contracts/SampleTokenSale.sol\":412:440  msg.value >= tokenPriceInWei */\n      lt\n      iszero\n        /* \"contracts/SampleTokenSale.sol\":404:472  require(msg.value >= tokenPriceInWei, \"You do not have enough eth.\") */\n      tag_18\n      jumpi\n      mload(0x40)\n      0x08c379a000000000000000000000000000000000000000000000000000000000\n      dup2\n      mstore\n      0x04\n      add\n      tag_19\n      swap1\n      tag_20\n      jump\t// in\n    tag_19:\n      mload(0x40)\n      dup1\n      swap2\n      sub\n      swap1\n      revert\n    tag_18:\n        /* \"contracts/SampleTokenSale.sol\":483:503  uint tokenToTransfer */\n      0x00\n        /* \"contracts/SampleTokenSale.sol\":518:533  tokenPriceInWei */\n      dup1\n      sload\n        /* \"contracts/SampleTokenSale.sol\":506:515  msg.value */\n      callvalue\n        /* \"contracts/SampleTokenSale.sol\":506:533  msg.value / tokenPriceInWei */\n      tag_21\n      swap2\n      swap1\n      tag_22\n      jump\t// in\n    tag_21:\n        /* \"contracts/SampleTokenSale.sol\":483:533  uint tokenToTransfer = msg.value / tokenPriceInWei */\n      swap1\n      pop\n        /* \"contracts/SampleTokenSale.sol\":544:558  uint remainder */\n      0x00\n        /* \"contracts/SampleTokenSale.sol\":591:606  tokenPriceInWei */\n      dup1\n      sload\n        /* \"contracts/SampleTokenSale.sol\":573:588  tokenToTransfer */\n      dup3\n        /* \"contracts/SampleTokenSale.sol\":573:606  tokenToTransfer * tokenPriceInWei */\n      tag_23\n      swap2\n      swap1\n      tag_24\n      jump\t// in\n    tag_23:\n        /* \"contracts/SampleTokenSale.sol\":561:570  msg.value */\n      callvalue\n        /* \"contracts/SampleTokenSale.sol\":561:606  msg.value - tokenToTransfer * tokenPriceInWei */\n      tag_25\n      swap2\n      swap1\n      tag_26\n      jump\t// in\n    tag_25:\n        /* \"contracts/SampleTokenSale.sol\":544:606  uint remainder = msg.value - tokenToTransfer * tokenPriceInWei */\n      swap1\n      pop\n        /* \"contracts/SampleTokenSale.sol\":617:622  token */\n      0x01\n      0x00\n      swap1\n      sload\n      swap1\n      0x0100\n      exp\n      swap1\n      div\n      0xffffffffffffffffffffffffffffffffffffffff\n      and\n        /* \"contracts/SampleTokenSale.sol\":617:635  token.transferFrom */\n      0xffffffffffffffffffffffffffffffffffffffff\n      and\n      0x23b872dd\n        /* \"contracts/SampleTokenSale.sol\":636:646  tokenOwner */\n      0x02\n      0x00\n      swap1\n      sload\n      swap1\n      0x0100\n      exp\n      swap1\n      div\n      0xffffffffffffffffffffffffffffffffffffffff\n      and\n        /* \"contracts/SampleTokenSale.sol\":648:658  msg.sender */\n      caller\n        /* \"contracts/SampleTokenSale.sol\":683:688  token */\n      0x01\n      0x00\n      swap1\n      sload\n      swap1\n      0x0100\n      exp\n      swap1\n      div\n      0xffffffffffffffffffffffffffffffffffffffff\n      and\n        /* \"contracts/SampleTokenSale.sol\":683:697  token.decimals */\n      0xffffffffffffffffffffffffffffffffffffffff\n      and\n      0x313ce567\n        /* \"contracts/SampleTokenSale.sol\":683:699  token.decimals() */\n      mload(0x40)\n      dup2\n      0xffffffff\n      and\n      0xe0\n      shl\n      dup2\n      mstore\n      0x04\n      add\n      0x20\n      mload(0x40)\n      dup1\n      dup4\n      sub\n      dup2\n      dup7\n      gas\n      staticcall\n      iszero\n      dup1\n      iszero\n      tag_28\n      jumpi\n      returndatasize\n      0x00\n      dup1\n      returndatacopy\n      revert(0x00, returndatasize)\n    tag_28:\n      pop\n      pop\n      pop\n      pop\n      mload(0x40)\n      returndatasize\n      not(0x1f)\n      0x1f\n      dup3\n      add\n      and\n      dup3\n      add\n      dup1\n      0x40\n      mstore\n      pop\n      dup2\n      add\n      swap1\n      tag_29\n      swap2\n      swap1\n      tag_30\n      jump\t// in\n    tag_29:\n        /* \"contracts/SampleTokenSale.sol\":660:699  tokenToTransfer * 10 * token.decimals() */\n      0xff\n      and\n        /* \"contracts/SampleTokenSale.sol\":678:680  10 */\n      0x0a\n        /* \"contracts/SampleTokenSale.sol\":660:675  tokenToTransfer */\n      dup8\n        /* \"contracts/SampleTokenSale.sol\":660:680  tokenToTransfer * 10 */\n      tag_31\n      swap2\n      swap1\n      tag_24\n      jump\t// in\n    tag_31:\n        /* \"contracts/SampleTokenSale.sol\":660:699  tokenToTransfer * 10 * token.decimals() */\n      tag_32\n      swap2\n      swap1\n      tag_24\n      jump\t// in\n    tag_32:\n        /* \"contracts/SampleTokenSale.sol\":617:700  token.transferFrom(tokenOwner, msg.sender, tokenToTransfer * 10 * token.decimals()) */\n      mload(0x40)\n      dup5\n      0xffffffff\n      and\n      0xe0\n      shl\n      dup2\n      mstore\n      0x04\n      add\n      tag_33\n      swap4\n      swap3\n      swap2\n      swap1\n      tag_34\n      jump\t// in\n    tag_33:\n      0x20\n      mload(0x40)\n      dup1\n      dup4\n      sub\n      dup2\n      0x00\n      dup8\n      gas\n      call\n      iszero\n      dup1\n      iszero\n      tag_36\n      jumpi\n      returndatasize\n      0x00\n      dup1\n      returndatacopy\n      revert(0x00, returndatasize)\n    tag_36:\n      pop\n      pop\n      pop\n      pop\n      mload(0x40)\n      returndatasize\n      not(0x1f)\n      0x1f\n      dup3\n      add\n      and\n      dup3\n      add\n      dup1\n      0x40\n      mstore\n      pop\n      dup2\n      add\n      swap1\n      tag_37\n      swap2\n      swap1\n      tag_38\n      jump\t// in\n    tag_37:\n      pop\n        /* \"contracts/SampleTokenSale.sol\":719:729  msg.sender */\n      caller\n        /* \"contracts/SampleTokenSale.sol\":711:739  payable(msg.sender).transfer */\n      0xffffffffffffffffffffffffffffffffffffffff\n      and\n        /* \"contracts/SampleTokenSale.sol\":711:750  payable(msg.sender).transfer(remainder) */\n      0x08fc\n        /* \"contracts/SampleTokenSale.sol\":740:749  remainder */\n      dup3\n        /* \"contracts/SampleTokenSale.sol\":711:750  payable(msg.sender).transfer(remainder) */\n      swap1\n      dup2\n      iszero\n      mul\n      swap1\n      mload(0x40)\n      0x00\n      mload(0x40)\n      dup1\n      dup4\n      sub\n      dup2\n      dup6\n      dup9\n      dup9\n      call\n      swap4\n      pop\n      pop\n      pop\n      pop\n      iszero\n      dup1\n      iszero\n      tag_40\n      jumpi\n      returndatasize\n      0x00\n      dup1\n      returndatacopy\n      revert(0x00, returndatasize)\n    tag_40:\n      pop\n        /* \"contracts/SampleTokenSale.sol\":393:791  {... */\n      pop\n      pop\n        /* \"contracts/SampleTokenSale.sol\":353:791  function purchaseACoffe() public payable{... */\n      jump\t// out\n        /* \"contracts/SampleTokenSale.sol\":190:208  ERC20 public token */\n    tag_14:\n      0x01\n      0x00\n      swap1\n      sload\n      swap1\n      0x0100\n      exp\n      swap1\n      div\n      0xffffffffffffffffffffffffffffffffffffffff\n      and\n      dup2\n      jump\t// out\n        /* \"#utility.yul\":7:84   */\n    tag_41:\n        /* \"#utility.yul\":44:51   */\n      0x00\n        /* \"#utility.yul\":73:78   */\n      dup2\n        /* \"#utility.yul\":62:78   */\n      swap1\n      pop\n        /* \"#utility.yul\":7:84   */\n      swap2\n      swap1\n      pop\n      jump\t// out\n        /* \"#utility.yul\":90:208   */\n    tag_42:\n        /* \"#utility.yul\":177:201   */\n      tag_68\n        /* \"#utility.yul\":195:200   */\n      dup2\n        /* \"#utility.yul\":177:201   */\n      tag_41\n      jump\t// in\n    tag_68:\n        /* \"#utility.yul\":172:175   */\n      dup3\n        /* \"#utility.yul\":165:202   */\n      mstore\n        /* \"#utility.yul\":90:208   */\n      pop\n      pop\n      jump\t// out\n        /* \"#utility.yul\":214:436   */\n    tag_9:\n        /* \"#utility.yul\":307:311   */\n      0x00\n        /* \"#utility.yul\":345:347   */\n      0x20\n        /* \"#utility.yul\":334:343   */\n      dup3\n        /* \"#utility.yul\":330:348   */\n      add\n        /* \"#utility.yul\":322:348   */\n      swap1\n      pop\n        /* \"#utility.yul\":358:429   */\n      tag_70\n        /* \"#utility.yul\":426:427   */\n      0x00\n        /* \"#utility.yul\":415:424   */\n      dup4\n        /* \"#utility.yul\":411:428   */\n      add\n        /* \"#utility.yul\":402:408   */\n      dup5\n        /* \"#utility.yul\":358:429   */\n      tag_42\n      jump\t// in\n    tag_70:\n        /* \"#utility.yul\":214:436   */\n      swap3\n      swap2\n      pop\n      pop\n      jump\t// out\n        /* \"#utility.yul\":442:568   */\n    tag_43:\n        /* \"#utility.yul\":479:486   */\n      0x00\n        /* \"#utility.yul\":519:561   */\n      0xffffffffffffffffffffffffffffffffffffffff\n        /* \"#utility.yul\":512:517   */\n      dup3\n        /* \"#utility.yul\":508:562   */\n      and\n        /* \"#utility.yul\":497:562   */\n      swap1\n      pop\n        /* \"#utility.yul\":442:568   */\n      swap2\n      swap1\n      pop\n      jump\t// out\n        /* \"#utility.yul\":574:634   */\n    tag_44:\n        /* \"#utility.yul\":602:605   */\n      0x00\n        /* \"#utility.yul\":623:628   */\n      dup2\n        /* \"#utility.yul\":616:628   */\n      swap1\n      pop\n        /* \"#utility.yul\":574:634   */\n      swap2\n      swap1\n      pop\n      jump\t// out\n        /* \"#utility.yul\":640:782   */\n    tag_45:\n        /* \"#utility.yul\":690:699   */\n      0x00\n        /* \"#utility.yul\":723:776   */\n      tag_74\n        /* \"#utility.yul\":741:775   */\n      tag_75\n        /* \"#utility.yul\":750:774   */\n      tag_76\n        /* \"#utility.yul\":768:773   */\n      dup5\n        /* \"#utility.yul\":750:774   */\n      tag_43\n      jump\t// in\n    tag_76:\n        /* \"#utility.yul\":741:775   */\n      tag_44\n      jump\t// in\n    tag_75:\n        /* \"#utility.yul\":723:776   */\n      tag_43\n      jump\t// in\n    tag_74:\n        /* \"#utility.yul\":710:776   */\n      swap1\n      pop\n        /* \"#utility.yul\":640:782   */\n      swap2\n      swap1\n      pop\n      jump\t// out\n        /* \"#utility.yul\":788:914   */\n    tag_46:\n        /* \"#utility.yul\":838:847   */\n      0x00\n        /* \"#utility.yul\":871:908   */\n      tag_78\n        /* \"#utility.yul\":902:907   */\n      dup3\n        /* \"#utility.yul\":871:908   */\n      tag_45\n      jump\t// in\n    tag_78:\n        /* \"#utility.yul\":858:908   */\n      swap1\n      pop\n        /* \"#utility.yul\":788:914   */\n      swap2\n      swap1\n      pop\n      jump\t// out\n        /* \"#utility.yul\":920:1059   */\n    tag_47:\n        /* \"#utility.yul\":983:992   */\n      0x00\n        /* \"#utility.yul\":1016:1053   */\n      tag_80\n        /* \"#utility.yul\":1047:1052   */\n      dup3\n        /* \"#utility.yul\":1016:1053   */\n      tag_46\n      jump\t// in\n    tag_80:\n        /* \"#utility.yul\":1003:1053   */\n      swap1\n      pop\n        /* \"#utility.yul\":920:1059   */\n      swap2\n      swap1\n      pop\n      jump\t// out\n        /* \"#utility.yul\":1065:1222   */\n    tag_48:\n        /* \"#utility.yul\":1165:1215   */\n      tag_82\n        /* \"#utility.yul\":1209:1214   */\n      dup2\n        /* \"#utility.yul\":1165:1215   */\n      tag_47\n      jump\t// in\n    tag_82:\n        /* \"#utility.yul\":1160:1163   */\n      dup3\n        /* \"#utility.yul\":1153:1216   */\n      mstore\n        /* \"#utility.yul\":1065:1222   */\n      pop\n      pop\n      jump\t// out\n        /* \"#utility.yul\":1228:1476   */\n    tag_16:\n        /* \"#utility.yul\":1334:1338   */\n      0x00\n        /* \"#utility.yul\":1372:1374   */\n      0x20\n        /* \"#utility.yul\":1361:1370   */\n      dup3\n        /* \"#utility.yul\":1357:1375   */\n      add\n        /* \"#utility.yul\":1349:1375   */\n      swap1\n      pop\n        /* \"#utility.yul\":1385:1469   */\n      tag_84\n        /* \"#utility.yul\":1466:1467   */\n      0x00\n        /* \"#utility.yul\":1455:1464   */\n      dup4\n        /* \"#utility.yul\":1451:1468   */\n      add\n        /* \"#utility.yul\":1442:1448   */\n      dup5\n        /* \"#utility.yul\":1385:1469   */\n      tag_48\n      jump\t// in\n    tag_84:\n        /* \"#utility.yul\":1228:1476   */\n      swap3\n      swap2\n      pop\n      pop\n      jump\t// out\n        /* \"#utility.yul\":1482:1651   */\n    tag_49:\n        /* \"#utility.yul\":1566:1577   */\n      0x00\n        /* \"#utility.yul\":1600:1606   */\n      dup3\n        /* \"#utility.yul\":1595:1598   */\n      dup3\n        /* \"#utility.yul\":1588:1607   */\n      mstore\n        /* \"#utility.yul\":1640:1644   */\n      0x20\n        /* \"#utility.yul\":1635:1638   */\n      dup3\n        /* \"#utility.yul\":1631:1645   */\n      add\n        /* \"#utility.yul\":1616:1645   */\n      swap1\n      pop\n        /* \"#utility.yul\":1482:1651   */\n      swap3\n      swap2\n      pop\n      pop\n      jump\t// out\n        /* \"#utility.yul\":1657:1834   */\n    tag_50:\n        /* \"#utility.yul\":1797:1826   */\n      0x596f7520646f206e6f74206861766520656e6f756768206574682e0000000000\n        /* \"#utility.yul\":1793:1794   */\n      0x00\n        /* \"#utility.yul\":1785:1791   */\n      dup3\n        /* \"#utility.yul\":1781:1795   */\n      add\n        /* \"#utility.yul\":1774:1827   */\n      mstore\n        /* \"#utility.yul\":1657:1834   */\n      pop\n      jump\t// out\n        /* \"#utility.yul\":1840:2206   */\n    tag_51:\n        /* \"#utility.yul\":1982:1985   */\n      0x00\n        /* \"#utility.yul\":2003:2070   */\n      tag_88\n        /* \"#utility.yul\":2067:2069   */\n      0x1b\n        /* \"#utility.yul\":2062:2065   */\n      dup4\n        /* \"#utility.yul\":2003:2070   */\n      tag_49\n      jump\t// in\n    tag_88:\n        /* \"#utility.yul\":1996:2070   */\n      swap2\n      pop\n        /* \"#utility.yul\":2079:2172   */\n      tag_89\n        /* \"#utility.yul\":2168:2171   */\n      dup3\n        /* \"#utility.yul\":2079:2172   */\n      tag_50\n      jump\t// in\n    tag_89:\n        /* \"#utility.yul\":2197:2199   */\n      0x20\n        /* \"#utility.yul\":2192:2195   */\n      dup3\n        /* \"#utility.yul\":2188:2200   */\n      add\n        /* \"#utility.yul\":2181:2200   */\n      swap1\n      pop\n        /* \"#utility.yul\":1840:2206   */\n      swap2\n      swap1\n      pop\n      jump\t// out\n        /* \"#utility.yul\":2212:2631   */\n    tag_20:\n        /* \"#utility.yul\":2378:2382   */\n      0x00\n        /* \"#utility.yul\":2416:2418   */\n      0x20\n        /* \"#utility.yul\":2405:2414   */\n      dup3\n        /* \"#utility.yul\":2401:2419   */\n      add\n        /* \"#utility.yul\":2393:2419   */\n      swap1\n      pop\n        /* \"#utility.yul\":2465:2474   */\n      dup2\n        /* \"#utility.yul\":2459:2463   */\n      dup2\n        /* \"#utility.yul\":2455:2475   */\n      sub\n        /* \"#utility.yul\":2451:2452   */\n      0x00\n        /* \"#utility.yul\":2440:2449   */\n      dup4\n        /* \"#utility.yul\":2436:2453   */\n      add\n        /* \"#utility.yul\":2429:2476   */\n      mstore\n        /* \"#utility.yul\":2493:2624   */\n      tag_91\n        /* \"#utility.yul\":2619:2623   */\n      dup2\n        /* \"#utility.yul\":2493:2624   */\n      tag_51\n      jump\t// in\n    tag_91:\n        /* \"#utility.yul\":2485:2624   */\n      swap1\n      pop\n        /* \"#utility.yul\":2212:2631   */\n      swap2\n      swap1\n      pop\n      jump\t// out\n        /* \"#utility.yul\":2637:2817   */\n    tag_52:\n        /* \"#utility.yul\":2685:2762   */\n      0x4e487b7100000000000000000000000000000000000000000000000000000000\n        /* \"#utility.yul\":2682:2683   */\n      0x00\n        /* \"#utility.yul\":2675:2763   */\n      mstore\n        /* \"#utility.yul\":2782:2786   */\n      0x12\n        /* \"#utility.yul\":2779:2780   */\n      0x04\n        /* \"#utility.yul\":2772:2787   */\n      mstore\n        /* \"#utility.yul\":2806:2810   */\n      0x24\n        /* \"#utility.yul\":2803:2804   */\n      0x00\n        /* \"#utility.yul\":2796:2811   */\n      revert\n        /* \"#utility.yul\":2823:3003   */\n    tag_53:\n        /* \"#utility.yul\":2871:2948   */\n      0x4e487b7100000000000000000000000000000000000000000000000000000000\n        /* \"#utility.yul\":2868:2869   */\n      0x00\n        /* \"#utility.yul\":2861:2949   */\n      mstore\n        /* \"#utility.yul\":2968:2972   */\n      0x11\n        /* \"#utility.yul\":2965:2966   */\n      0x04\n        /* \"#utility.yul\":2958:2973   */\n      mstore\n        /* \"#utility.yul\":2992:2996   */\n      0x24\n        /* \"#utility.yul\":2989:2990   */\n      0x00\n        /* \"#utility.yul\":2982:2997   */\n      revert\n        /* \"#utility.yul\":3009:3194   */\n    tag_22:\n        /* \"#utility.yul\":3049:3050   */\n      0x00\n        /* \"#utility.yul\":3066:3086   */\n      tag_95\n        /* \"#utility.yul\":3084:3085   */\n      dup3\n        /* \"#utility.yul\":3066:3086   */\n      tag_41\n      jump\t// in\n    tag_95:\n        /* \"#utility.yul\":3061:3086   */\n      swap2\n      pop\n        /* \"#utility.yul\":3100:3120   */\n      tag_96\n        /* \"#utility.yul\":3118:3119   */\n      dup4\n        /* \"#utility.yul\":3100:3120   */\n      tag_41\n      jump\t// in\n    tag_96:\n        /* \"#utility.yul\":3095:3120   */\n      swap3\n      pop\n        /* \"#utility.yul\":3139:3140   */\n      dup3\n        /* \"#utility.yul\":3129:3164   */\n      tag_97\n      jumpi\n        /* \"#utility.yul\":3144:3162   */\n      tag_98\n      tag_52\n      jump\t// in\n    tag_98:\n        /* \"#utility.yul\":3129:3164   */\n    tag_97:\n        /* \"#utility.yul\":3186:3187   */\n      dup3\n        /* \"#utility.yul\":3183:3184   */\n      dup3\n        /* \"#utility.yul\":3179:3188   */\n      div\n        /* \"#utility.yul\":3174:3188   */\n      swap1\n      pop\n        /* \"#utility.yul\":3009:3194   */\n      swap3\n      swap2\n      pop\n      pop\n      jump\t// out\n        /* \"#utility.yul\":3200:3610   */\n    tag_24:\n        /* \"#utility.yul\":3240:3247   */\n      0x00\n        /* \"#utility.yul\":3263:3283   */\n      tag_100\n        /* \"#utility.yul\":3281:3282   */\n      dup3\n        /* \"#utility.yul\":3263:3283   */\n      tag_41\n      jump\t// in\n    tag_100:\n        /* \"#utility.yul\":3258:3283   */\n      swap2\n      pop\n        /* \"#utility.yul\":3297:3317   */\n      tag_101\n        /* \"#utility.yul\":3315:3316   */\n      dup4\n        /* \"#utility.yul\":3297:3317   */\n      tag_41\n      jump\t// in\n    tag_101:\n        /* \"#utility.yul\":3292:3317   */\n      swap3\n      pop\n        /* \"#utility.yul\":3352:3353   */\n      dup3\n        /* \"#utility.yul\":3349:3350   */\n      dup3\n        /* \"#utility.yul\":3345:3354   */\n      mul\n        /* \"#utility.yul\":3374:3404   */\n      tag_102\n        /* \"#utility.yul\":3392:3403   */\n      dup2\n        /* \"#utility.yul\":3374:3404   */\n      tag_41\n      jump\t// in\n    tag_102:\n        /* \"#utility.yul\":3363:3404   */\n      swap2\n      pop\n        /* \"#utility.yul\":3553:3554   */\n      dup3\n        /* \"#utility.yul\":3544:3551   */\n      dup3\n        /* \"#utility.yul\":3540:3555   */\n      div\n        /* \"#utility.yul\":3537:3538   */\n      dup5\n        /* \"#utility.yul\":3534:3556   */\n      eq\n        /* \"#utility.yul\":3514:3515   */\n      dup4\n        /* \"#utility.yul\":3507:3516   */\n      iszero\n        /* \"#utility.yul\":3487:3570   */\n      or\n        /* \"#utility.yul\":3464:3603   */\n      tag_103\n      jumpi\n        /* \"#utility.yul\":3583:3601   */\n      tag_104\n      tag_53\n      jump\t// in\n    tag_104:\n        /* \"#utility.yul\":3464:3603   */\n    tag_103:\n        /* \"#utility.yul\":3248:3610   */\n      pop\n        /* \"#utility.yul\":3200:3610   */\n      swap3\n      swap2\n      pop\n      pop\n      jump\t// out\n        /* \"#utility.yul\":3616:3810   */\n    tag_26:\n        /* \"#utility.yul\":3656:3660   */\n      0x00\n        /* \"#utility.yul\":3676:3696   */\n      tag_106\n        /* \"#utility.yul\":3694:3695   */\n      dup3\n        /* \"#utility.yul\":3676:3696   */\n      tag_41\n      jump\t// in\n    tag_106:\n        /* \"#utility.yul\":3671:3696   */\n      swap2\n      pop\n        /* \"#utility.yul\":3710:3730   */\n      tag_107\n        /* \"#utility.yul\":3728:3729   */\n      dup4\n        /* \"#utility.yul\":3710:3730   */\n      tag_41\n      jump\t// in\n    tag_107:\n        /* \"#utility.yul\":3705:3730   */\n      swap3\n      pop\n        /* \"#utility.yul\":3754:3755   */\n      dup3\n        /* \"#utility.yul\":3751:3752   */\n      dup3\n        /* \"#utility.yul\":3747:3756   */\n      sub\n        /* \"#utility.yul\":3739:3756   */\n      swap1\n      pop\n        /* \"#utility.yul\":3778:3779   */\n      dup2\n        /* \"#utility.yul\":3772:3776   */\n      dup2\n        /* \"#utility.yul\":3769:3780   */\n      gt\n        /* \"#utility.yul\":3766:3803   */\n      iszero\n      tag_108\n      jumpi\n        /* \"#utility.yul\":3783:3801   */\n      tag_109\n      tag_53\n      jump\t// in\n    tag_109:\n        /* \"#utility.yul\":3766:3803   */\n    tag_108:\n        /* \"#utility.yul\":3616:3810   */\n      swap3\n      swap2\n      pop\n      pop\n      jump\t// out\n        /* \"#utility.yul\":3897:4014   */\n    tag_55:\n        /* \"#utility.yul\":4006:4007   */\n      0x00\n        /* \"#utility.yul\":4003:4004   */\n      dup1\n        /* \"#utility.yul\":3996:4008   */\n      revert\n        /* \"#utility.yul\":4143:4229   */\n    tag_57:\n        /* \"#utility.yul\":4178:4185   */\n      0x00\n        /* \"#utility.yul\":4218:4222   */\n      0xff\n        /* \"#utility.yul\":4211:4216   */\n      dup3\n        /* \"#utility.yul\":4207:4223   */\n      and\n        /* \"#utility.yul\":4196:4223   */\n      swap1\n      pop\n        /* \"#utility.yul\":4143:4229   */\n      swap2\n      swap1\n      pop\n      jump\t// out\n        /* \"#utility.yul\":4235:4353   */\n    tag_58:\n        /* \"#utility.yul\":4306:4328   */\n      tag_115\n        /* \"#utility.yul\":4322:4327   */\n      dup2\n        /* \"#utility.yul\":4306:4328   */\n      tag_57\n      jump\t// in\n    tag_115:\n        /* \"#utility.yul\":4299:4304   */\n      dup2\n        /* \"#utility.yul\":4296:4329   */\n      eq\n        /* \"#utility.yul\":4286:4347   */\n      tag_116\n      jumpi\n        /* \"#utility.yul\":4343:4344   */\n      0x00\n        /* \"#utility.yul\":4340:4341   */\n      dup1\n        /* \"#utility.yul\":4333:4345   */\n      revert\n        /* \"#utility.yul\":4286:4347   */\n    tag_116:\n        /* \"#utility.yul\":4235:4353   */\n      pop\n      jump\t// out\n        /* \"#utility.yul\":4359:4498   */\n    tag_59:\n        /* \"#utility.yul\":4414:4419   */\n      0x00\n        /* \"#utility.yul\":4445:4451   */\n      dup2\n        /* \"#utility.yul\":4439:4452   */\n      mload\n        /* \"#utility.yul\":4430:4452   */\n      swap1\n      pop\n        /* \"#utility.yul\":4461:4492   */\n      tag_118\n        /* \"#utility.yul\":4486:4491   */\n      dup2\n        /* \"#utility.yul\":4461:4492   */\n      tag_58\n      jump\t// in\n    tag_118:\n        /* \"#utility.yul\":4359:4498   */\n      swap3\n      swap2\n      pop\n      pop\n      jump\t// out\n        /* \"#utility.yul\":4504:4851   */\n    tag_30:\n        /* \"#utility.yul\":4572:4578   */\n      0x00\n        /* \"#utility.yul\":4621:4623   */\n      0x20\n        /* \"#utility.yul\":4609:4618   */\n      dup3\n        /* \"#utility.yul\":4600:4607   */\n      dup5\n        /* \"#utility.yul\":4596:4619   */\n      sub\n        /* \"#utility.yul\":4592:4624   */\n      slt\n        /* \"#utility.yul\":4589:4708   */\n      iszero\n      tag_120\n      jumpi\n        /* \"#utility.yul\":4627:4706   */\n      tag_121\n      tag_55\n      jump\t// in\n    tag_121:\n        /* \"#utility.yul\":4589:4708   */\n    tag_120:\n        /* \"#utility.yul\":4747:4748   */\n      0x00\n        /* \"#utility.yul\":4772:4834   */\n      tag_122\n        /* \"#utility.yul\":4826:4833   */\n      dup5\n        /* \"#utility.yul\":4817:4823   */\n      dup3\n        /* \"#utility.yul\":4806:4815   */\n      dup6\n        /* \"#utility.yul\":4802:4824   */\n      add\n        /* \"#utility.yul\":4772:4834   */\n      tag_59\n      jump\t// in\n    tag_122:\n        /* \"#utility.yul\":4762:4834   */\n      swap2\n      pop\n        /* \"#utility.yul\":4718:4844   */\n      pop\n        /* \"#utility.yul\":4504:4851   */\n      swap3\n      swap2\n      pop\n      pop\n      jump\t// out\n        /* \"#utility.yul\":4857:4953   */\n    tag_60:\n        /* \"#utility.yul\":4894:4901   */\n      0x00\n        /* \"#utility.yul\":4923:4947   */\n      tag_124\n        /* \"#utility.yul\":4941:4946   */\n      dup3\n        /* \"#utility.yul\":4923:4947   */\n      tag_43\n      jump\t// in\n    tag_124:\n        /* \"#utility.yul\":4912:4947   */\n      swap1\n      pop\n        /* \"#utility.yul\":4857:4953   */\n      swap2\n      swap1\n      pop\n      jump\t// out\n        /* \"#utility.yul\":4959:5077   */\n    tag_61:\n        /* \"#utility.yul\":5046:5070   */\n      tag_126\n        /* \"#utility.yul\":5064:5069   */\n      dup2\n        /* \"#utility.yul\":5046:5070   */\n      tag_60\n      jump\t// in\n    tag_126:\n        /* \"#utility.yul\":5041:5044   */\n      dup3\n        /* \"#utility.yul\":5034:5071   */\n      mstore\n        /* \"#utility.yul\":4959:5077   */\n      pop\n      pop\n      jump\t// out\n        /* \"#utility.yul\":5083:5525   */\n    tag_34:\n        /* \"#utility.yul\":5232:5236   */\n      0x00\n        /* \"#utility.yul\":5270:5272   */\n      0x60\n        /* \"#utility.yul\":5259:5268   */\n      dup3\n        /* \"#utility.yul\":5255:5273   */\n      add\n        /* \"#utility.yul\":5247:5273   */\n      swap1\n      pop\n        /* \"#utility.yul\":5283:5354   */\n      tag_128\n        /* \"#utility.yul\":5351:5352   */\n      0x00\n        /* \"#utility.yul\":5340:5349   */\n      dup4\n        /* \"#utility.yul\":5336:5353   */\n      add\n        /* \"#utility.yul\":5327:5333   */\n      dup7\n        /* \"#utility.yul\":5283:5354   */\n      tag_61\n      jump\t// in\n    tag_128:\n        /* \"#utility.yul\":5364:5436   */\n      tag_129\n        /* \"#utility.yul\":5432:5434   */\n      0x20\n        /* \"#utility.yul\":5421:5430   */\n      dup4\n        /* \"#utility.yul\":5417:5435   */\n      add\n        /* \"#utility.yul\":5408:5414   */\n      dup6\n        /* \"#utility.yul\":5364:5436   */\n      tag_61\n      jump\t// in\n    tag_129:\n        /* \"#utility.yul\":5446:5518   */\n      tag_130\n        /* \"#utility.yul\":5514:5516   */\n      0x40\n        /* \"#utility.yul\":5503:5512   */\n      dup4\n        /* \"#utility.yul\":5499:5517   */\n      add\n        /* \"#utility.yul\":5490:5496   */\n      dup5\n        /* \"#utility.yul\":5446:5518   */\n      tag_42\n      jump\t// in\n    tag_130:\n        /* \"#utility.yul\":5083:5525   */\n      swap5\n      swap4\n      pop\n      pop\n      pop\n      pop\n      jump\t// out\n        /* \"#utility.yul\":5531:5621   */\n    tag_62:\n        /* \"#utility.yul\":5565:5572   */\n      0x00\n        /* \"#utility.yul\":5608:5613   */\n      dup2\n        /* \"#utility.yul\":5601:5614   */\n      iszero\n        /* \"#utility.yul\":5594:5615   */\n      iszero\n        /* \"#utility.yul\":5583:5615   */\n      swap1\n      pop\n        /* \"#utility.yul\":5531:5621   */\n      swap2\n      swap1\n      pop\n      jump\t// out\n        /* \"#utility.yul\":5627:5743   */\n    tag_63:\n        /* \"#utility.yul\":5697:5718   */\n      tag_133\n        /* \"#utility.yul\":5712:5717   */\n      dup2\n        /* \"#utility.yul\":5697:5718   */\n      tag_62\n      jump\t// in\n    tag_133:\n        /* \"#utility.yul\":5690:5695   */\n      dup2\n        /* \"#utility.yul\":5687:5719   */\n      eq\n        /* \"#utility.yul\":5677:5737   */\n      tag_134\n      jumpi\n        /* \"#utility.yul\":5733:5734   */\n      0x00\n        /* \"#utility.yul\":5730:5731   */\n      dup1\n        /* \"#utility.yul\":5723:5735   */\n      revert\n        /* \"#utility.yul\":5677:5737   */\n    tag_134:\n        /* \"#utility.yul\":5627:5743   */\n      pop\n      jump\t// out\n        /* \"#utility.yul\":5749:5886   */\n    tag_64:\n        /* \"#utility.yul\":5803:5808   */\n      0x00\n        /* \"#utility.yul\":5834:5840   */\n      dup2\n        /* \"#utility.yul\":5828:5841   */\n      mload\n        /* \"#utility.yul\":5819:5841   */\n      swap1\n      pop\n        /* \"#utility.yul\":5850:5880   */\n      tag_136\n        /* \"#utility.yul\":5874:5879   */\n      dup2\n        /* \"#utility.yul\":5850:5880   */\n      tag_63\n      jump\t// in\n    tag_136:\n        /* \"#utility.yul\":5749:5886   */\n      swap3\n      swap2\n      pop\n      pop\n      jump\t// out\n        /* \"#utility.yul\":5892:6237   */\n    tag_38:\n        /* \"#utility.yul\":5959:5965   */\n      0x00\n        /* \"#utility.yul\":6008:6010   */\n      0x20\n        /* \"#utility.yul\":5996:6005   */\n      dup3\n        /* \"#utility.yul\":5987:5994   */\n      dup5\n        /* \"#utility.yul\":5983:6006   */\n      sub\n        /* \"#utility.yul\":5979:6011   */\n      slt\n        /* \"#utility.yul\":5976:6095   */\n      iszero\n      tag_138\n      jumpi\n        /* \"#utility.yul\":6014:6093   */\n      tag_139\n      tag_55\n      jump\t// in\n    tag_139:\n        /* \"#utility.yul\":5976:6095   */\n    tag_138:\n        /* \"#utility.yul\":6134:6135   */\n      0x00\n        /* \"#utility.yul\":6159:6220   */\n      tag_140\n        /* \"#utility.yul\":6212:6219   */\n      dup5\n        /* \"#utility.yul\":6203:6209   */\n      dup3\n        /* \"#utility.yul\":6192:6201   */\n      dup6\n        /* \"#utility.yul\":6188:6210   */\n      add\n        /* \"#utility.yul\":6159:6220   */\n      tag_64\n      jump\t// in\n    tag_140:\n        /* \"#utility.yul\":6149:6220   */\n      swap2\n      pop\n        /* \"#utility.yul\":6105:6230   */\n      pop\n        /* \"#utility.yul\":5892:6237   */\n      swap3\n      swap2\n      pop\n      pop\n      jump\t// out\n\n    auxdata: 0xa2646970667358221220e448a89b95cb4145f6cad1f9eb1f7013dc4d81fc40625942860e424943c66b0a64736f6c634300081a0033\n}\n",
				"bytecode": {
					"linkReferences": {},
					"object": "6080604052670de0b6b3a76400005f5534801561001a575f80fd5b506040516107bf3803806107bf833981810160405281019061003c9190610120565b3360025f6101000a81548173ffffffffffffffffffffffffffffffffffffffff021916908373ffffffffffffffffffffffffffffffffffffffff1602179055508060015f6101000a81548173ffffffffffffffffffffffffffffffffffffffff021916908373ffffffffffffffffffffffffffffffffffffffff1602179055505061014b565b5f80fd5b5f73ffffffffffffffffffffffffffffffffffffffff82169050919050565b5f6100ef826100c6565b9050919050565b6100ff816100e5565b8114610109575f80fd5b50565b5f8151905061011a816100f6565b92915050565b5f60208284031215610135576101346100c2565b5b5f6101428482850161010c565b91505092915050565b610667806101585f395ff3fe608060405260043610610033575f3560e01c80632f8de81014610037578063e7e7865214610061578063fc0c546a1461006b575b5f80fd5b348015610042575f80fd5b5061004b610095565b60405161005891906102f5565b60405180910390f35b61006961009a565b005b348015610076575f80fd5b5061007f6102b8565b60405161008c9190610388565b60405180910390f35b5f5481565b5f543410156100de576040517f08c379a00000000000000000000000000000000000000000000000000000000081526004016100d5906103fb565b60405180910390fd5b5f8054346100ec9190610473565b90505f8054826100fc91906104a3565b3461010791906104e4565b905060015f9054906101000a900473ffffffffffffffffffffffffffffffffffffffff1673ffffffffffffffffffffffffffffffffffffffff166323b872dd60025f9054906101000a900473ffffffffffffffffffffffffffffffffffffffff163360015f9054906101000a900473ffffffffffffffffffffffffffffffffffffffff1673ffffffffffffffffffffffffffffffffffffffff1663313ce5676040518163ffffffff1660e01b8152600401602060405180830381865afa1580156101d3573d5f803e3d5ffd5b505050506040513d601f19601f820116820180604052508101906101f79190610551565b60ff16600a8761020791906104a3565b61021191906104a3565b6040518463ffffffff1660e01b815260040161022f9392919061059c565b6020604051808303815f875af115801561024b573d5f803e3d5ffd5b505050506040513d601f19601f8201168201806040525081019061026f9190610606565b503373ffffffffffffffffffffffffffffffffffffffff166108fc8290811502906040515f60405180830381858888f193505050501580156102b3573d5f803e3d5ffd5b505050565b60015f9054906101000a900473ffffffffffffffffffffffffffffffffffffffff1681565b5f819050919050565b6102ef816102dd565b82525050565b5f6020820190506103085f8301846102e6565b92915050565b5f73ffffffffffffffffffffffffffffffffffffffff82169050919050565b5f819050919050565b5f61035061034b6103468461030e565b61032d565b61030e565b9050919050565b5f61036182610336565b9050919050565b5f61037282610357565b9050919050565b61038281610368565b82525050565b5f60208201905061039b5f830184610379565b92915050565b5f82825260208201905092915050565b7f596f7520646f206e6f74206861766520656e6f756768206574682e00000000005f82015250565b5f6103e5601b836103a1565b91506103f0826103b1565b602082019050919050565b5f6020820190508181035f830152610412816103d9565b9050919050565b7f4e487b71000000000000000000000000000000000000000000000000000000005f52601260045260245ffd5b7f4e487b71000000000000000000000000000000000000000000000000000000005f52601160045260245ffd5b5f61047d826102dd565b9150610488836102dd565b92508261049857610497610419565b5b828204905092915050565b5f6104ad826102dd565b91506104b8836102dd565b92508282026104c6816102dd565b915082820484148315176104dd576104dc610446565b5b5092915050565b5f6104ee826102dd565b91506104f9836102dd565b925082820390508181111561051157610510610446565b5b92915050565b5f80fd5b5f60ff82169050919050565b6105308161051b565b811461053a575f80fd5b50565b5f8151905061054b81610527565b92915050565b5f6020828403121561056657610565610517565b5b5f6105738482850161053d565b91505092915050565b5f6105868261030e565b9050919050565b6105968161057c565b82525050565b5f6060820190506105af5f83018661058d565b6105bc602083018561058d565b6105c960408301846102e6565b949350505050565b5f8115159050919050565b6105e5816105d1565b81146105ef575f80fd5b50565b5f81519050610600816105dc565b92915050565b5f6020828403121561061b5761061a610517565b5b5f610628848285016105f2565b9150509291505056fea2646970667358221220e448a89b95cb4145f6cad1f9eb1f7013dc4d81fc40625942860e424943c66b0a64736f6c634300081a0033",
					"opcodes": "PUSH1 0x80 PUSH1 0x40 MSTORE PUSH8 0xDE0B6B3A7640000 PUSH0 SSTORE CALLVALUE DUP1 ISZERO PUSH2 0x1A JUMPI PUSH0 DUP1 REVERT JUMPDEST POP PUSH1 0x40 MLOAD PUSH2 0x7BF CODESIZE SUB DUP1 PUSH2 0x7BF DUP4 CODECOPY DUP2 DUP2 ADD PUSH1 0x40 MSTORE DUP2 ADD SWAP1 PUSH2 0x3C SWAP2 SWAP1 PUSH2 0x120 JUMP JUMPDEST CALLER PUSH1 0x2 PUSH0 PUSH2 0x100 EXP DUP2 SLOAD DUP2 PUSH20 0xFFFFFFFFFFFFFFFFFFFFFFFFFFFFFFFFFFFFFFFF MUL NOT AND SWAP1 DUP4 PUSH20 0xFFFFFFFFFFFFFFFFFFFFFFFFFFFFFFFFFFFFFFFF AND MUL OR SWAP1 SSTORE POP DUP1 PUSH1 0x1 PUSH0 PUSH2 0x100 EXP DUP2 SLOAD DUP2 PUSH20 0xFFFFFFFFFFFFFFFFFFFFFFFFFFFFFFFFFFFFFFFF MUL NOT AND SWAP1 DUP4 PUSH20 0xFFFFFFFFFFFFFFFFFFFFFFFFFFFFFFFFFFFFFFFF AND MUL OR SWAP1 SSTORE POP POP PUSH2 0x14B JUMP JUMPDEST PUSH0 DUP1 REVERT JUMPDEST PUSH0 PUSH20 0xFFFFFFFFFFFFFFFFFFFFFFFFFFFFFFFFFFFFFFFF DUP3 AND SWAP1 POP SWAP2 SWAP1 POP JUMP JUMPDEST PUSH0 PUSH2 0xEF DUP3 PUSH2 0xC6 JUMP JUMPDEST SWAP1 POP SWAP2 SWAP1 POP JUMP JUMPDEST PUSH2 0xFF DUP2 PUSH2 0xE5 JUMP JUMPDEST DUP2 EQ PUSH2 0x109 JUMPI PUSH0 DUP1 REVERT JUMPDEST POP JUMP JUMPDEST PUSH0 DUP2 MLOAD SWAP1 POP PUSH2 0x11A DUP2 PUSH2 0xF6 JUMP JUMPDEST SWAP3 SWAP2 POP POP JUMP JUMPDEST PUSH0 PUSH1 0x20 DUP3 DUP5 SUB SLT ISZERO PUSH2 0x135 JUMPI PUSH2 0x134 PUSH2 0xC2 JUMP JUMPDEST JUMPDEST PUSH0 PUSH2 0x142 DUP5 DUP3 DUP6 ADD PUSH2 0x10C JUMP JUMPDEST SWAP2 POP POP SWAP3 SWAP2 POP POP JUMP JUMPDEST PUSH2 0x667 DUP1 PUSH2 0x158 PUSH0 CODECOPY PUSH0 RETURN INVALID PUSH1 0x80 PUSH1 0x40 MSTORE PUSH1 0x4 CALLDATASIZE LT PUSH2 0x33 JUMPI PUSH0 CALLDATALOAD PUSH1 0xE0 SHR DUP1 PUSH4 0x2F8DE810 EQ PUSH2 0x37 JUMPI DUP1 PUSH4 0xE7E78652 EQ PUSH2 0x61 JUMPI DUP1 PUSH4 0xFC0C546A EQ PUSH2 0x6B JUMPI JUMPDEST PUSH0 DUP1 REVERT JUMPDEST CALLVALUE DUP1 ISZERO PUSH2 0x42 JUMPI PUSH0 DUP1 REVERT JUMPDEST POP PUSH2 0x4B PUSH2 0x95 JUMP JUMPDEST PUSH1 0x40 MLOAD PUSH2 0x58 SWAP2 SWAP1 PUSH2 0x2F5 JUMP JUMPDEST PUSH1 0x40 MLOAD DUP1 SWAP2 SUB SWAP1 RETURN JUMPDEST PUSH2 0x69 PUSH2 0x9A JUMP JUMPDEST STOP JUMPDEST CALLVALUE DUP1 ISZERO PUSH2 0x76 JUMPI PUSH0 DUP1 REVERT JUMPDEST POP PUSH2 0x7F PUSH2 0x2B8 JUMP JUMPDEST PUSH1 0x40 MLOAD PUSH2 0x8C SWAP2 SWAP1 PUSH2 0x388 JUMP JUMPDEST PUSH1 0x40 MLOAD DUP1 SWAP2 SUB SWAP1 RETURN JUMPDEST PUSH0 SLOAD DUP2 JUMP JUMPDEST PUSH0 SLOAD CALLVALUE LT ISZERO PUSH2 0xDE JUMPI PUSH1 0x40 MLOAD PUSH32 0x8C379A000000000000000000000000000000000000000000000000000000000 DUP2 MSTORE PUSH1 0x4 ADD PUSH2 0xD5 SWAP1 PUSH2 0x3FB JUMP JUMPDEST PUSH1 0x40 MLOAD DUP1 SWAP2 SUB SWAP1 REVERT JUMPDEST PUSH0 DUP1 SLOAD CALLVALUE PUSH2 0xEC SWAP2 SWAP1 PUSH2 0x473 JUMP JUMPDEST SWAP1 POP PUSH0 DUP1 SLOAD DUP3 PUSH2 0xFC SWAP2 SWAP1 PUSH2 0x4A3 JUMP JUMPDEST CALLVALUE PUSH2 0x107 SWAP2 SWAP1 PUSH2 0x4E4 JUMP JUMPDEST SWAP1 POP PUSH1 0x1 PUSH0 SWAP1 SLOAD SWAP1 PUSH2 0x100 EXP SWAP1 DIV PUSH20 0xFFFFFFFFFFFFFFFFFFFFFFFFFFFFFFFFFFFFFFFF AND PUSH20 0xFFFFFFFFFFFFFFFFFFFFFFFFFFFFFFFFFFFFFFFF AND PUSH4 0x23B872DD PUSH1 0x2 PUSH0 SWAP1 SLOAD SWAP1 PUSH2 0x100 EXP SWAP1 DIV PUSH20 0xFFFFFFFFFFFFFFFFFFFFFFFFFFFFFFFFFFFFFFFF AND CALLER PUSH1 0x1 PUSH0 SWAP1 SLOAD SWAP1 PUSH2 0x100 EXP SWAP1 DIV PUSH20 0xFFFFFFFFFFFFFFFFFFFFFFFFFFFFFFFFFFFFFFFF AND PUSH20 0xFFFFFFFFFFFFFFFFFFFFFFFFFFFFFFFFFFFFFFFF AND PUSH4 0x313CE567 PUSH1 0x40 MLOAD DUP2 PUSH4 0xFFFFFFFF AND PUSH1 0xE0 SHL DUP2 MSTORE PUSH1 0x4 ADD PUSH1 0x20 PUSH1 0x40 MLOAD DUP1 DUP4 SUB DUP2 DUP7 GAS STATICCALL ISZERO DUP1 ISZERO PUSH2 0x1D3 JUMPI RETURNDATASIZE PUSH0 DUP1 RETURNDATACOPY RETURNDATASIZE PUSH0 REVERT JUMPDEST POP POP POP POP PUSH1 0x40 MLOAD RETURNDATASIZE PUSH1 0x1F NOT PUSH1 0x1F DUP3 ADD AND DUP3 ADD DUP1 PUSH1 0x40 MSTORE POP DUP2 ADD SWAP1 PUSH2 0x1F7 SWAP2 SWAP1 PUSH2 0x551 JUMP JUMPDEST PUSH1 0xFF AND PUSH1 0xA DUP8 PUSH2 0x207 SWAP2 SWAP1 PUSH2 0x4A3 JUMP JUMPDEST PUSH2 0x211 SWAP2 SWAP1 PUSH2 0x4A3 JUMP JUMPDEST PUSH1 0x40 MLOAD DUP5 PUSH4 0xFFFFFFFF AND PUSH1 0xE0 SHL DUP2 MSTORE PUSH1 0x4 ADD PUSH2 0x22F SWAP4 SWAP3 SWAP2 SWAP1 PUSH2 0x59C JUMP JUMPDEST PUSH1 0x20 PUSH1 0x40 MLOAD DUP1 DUP4 SUB DUP2 PUSH0 DUP8 GAS CALL ISZERO DUP1 ISZERO PUSH2 0x24B JUMPI RETURNDATASIZE PUSH0 DUP1 RETURNDATACOPY RETURNDATASIZE PUSH0 REVERT JUMPDEST POP POP POP POP PUSH1 0x40 MLOAD RETURNDATASIZE PUSH1 0x1F NOT PUSH1 0x1F DUP3 ADD AND DUP3 ADD DUP1 PUSH1 0x40 MSTORE POP DUP2 ADD SWAP1 PUSH2 0x26F SWAP2 SWAP1 PUSH2 0x606 JUMP JUMPDEST POP CALLER PUSH20 0xFFFFFFFFFFFFFFFFFFFFFFFFFFFFFFFFFFFFFFFF AND PUSH2 0x8FC DUP3 SWAP1 DUP2 ISZERO MUL SWAP1 PUSH1 0x40 MLOAD PUSH0 PUSH1 0x40 MLOAD DUP1 DUP4 SUB DUP2 DUP6 DUP9 DUP9 CALL SWAP4 POP POP POP POP ISZERO DUP1 ISZERO PUSH2 0x2B3 JUMPI RETURNDATASIZE PUSH0 DUP1 RETURNDATACOPY RETURNDATASIZE PUSH0 REVERT JUMPDEST POP POP POP JUMP JUMPDEST PUSH1 0x1 PUSH0 SWAP1 SLOAD SWAP1 PUSH2 0x100 EXP SWAP1 DIV PUSH20 0xFFFFFFFFFFFFFFFFFFFFFFFFFFFFFFFFFFFFFFFF AND DUP2 JUMP JUMPDEST PUSH0 DUP2 SWAP1 POP SWAP2 SWAP1 POP JUMP JUMPDEST PUSH2 0x2EF DUP2 PUSH2 0x2DD JUMP JUMPDEST DUP3 MSTORE POP POP JUMP JUMPDEST PUSH0 PUSH1 0x20 DUP3 ADD SWAP1 POP PUSH2 0x308 PUSH0 DUP4 ADD DUP5 PUSH2 0x2E6 JUMP JUMPDEST SWAP3 SWAP2 POP POP JUMP JUMPDEST PUSH0 PUSH20 0xFFFFFFFFFFFFFFFFFFFFFFFFFFFFFFFFFFFFFFFF DUP3 AND SWAP1 POP SWAP2 SWAP1 POP JUMP JUMPDEST PUSH0 DUP2 SWAP1 POP SWAP2 SWAP1 POP JUMP JUMPDEST PUSH0 PUSH2 0x350 PUSH2 0x34B PUSH2 0x346 DUP5 PUSH2 0x30E JUMP JUMPDEST PUSH2 0x32D JUMP JUMPDEST PUSH2 0x30E JUMP JUMPDEST SWAP1 POP SWAP2 SWAP1 POP JUMP JUMPDEST PUSH0 PUSH2 0x361 DUP3 PUSH2 0x336 JUMP JUMPDEST SWAP1 POP SWAP2 SWAP1 POP JUMP JUMPDEST PUSH0 PUSH2 0x372 DUP3 PUSH2 0x357 JUMP JUMPDEST SWAP1 POP SWAP2 SWAP1 POP JUMP JUMPDEST PUSH2 0x382 DUP2 PUSH2 0x368 JUMP JUMPDEST DUP3 MSTORE POP POP JUMP JUMPDEST PUSH0 PUSH1 0x20 DUP3 ADD SWAP1 POP PUSH2 0x39B PUSH0 DUP4 ADD DUP5 PUSH2 0x379 JUMP JUMPDEST SWAP3 SWAP2 POP POP JUMP JUMPDEST PUSH0 DUP3 DUP3 MSTORE PUSH1 0x20 DUP3 ADD SWAP1 POP SWAP3 SWAP2 POP POP JUMP JUMPDEST PUSH32 0x596F7520646F206E6F74206861766520656E6F756768206574682E0000000000 PUSH0 DUP3 ADD MSTORE POP JUMP JUMPDEST PUSH0 PUSH2 0x3E5 PUSH1 0x1B DUP4 PUSH2 0x3A1 JUMP JUMPDEST SWAP2 POP PUSH2 0x3F0 DUP3 PUSH2 0x3B1 JUMP JUMPDEST PUSH1 0x20 DUP3 ADD SWAP1 POP SWAP2 SWAP1 POP JUMP JUMPDEST PUSH0 PUSH1 0x20 DUP3 ADD SWAP1 POP DUP2 DUP2 SUB PUSH0 DUP4 ADD MSTORE PUSH2 0x412 DUP2 PUSH2 0x3D9 JUMP JUMPDEST SWAP1 POP SWAP2 SWAP1 POP JUMP JUMPDEST PUSH32 0x4E487B7100000000000000000000000000000000000000000000000000000000 PUSH0 MSTORE PUSH1 0x12 PUSH1 0x4 MSTORE PUSH1 0x24 PUSH0 REVERT JUMPDEST PUSH32 0x4E487B7100000000000000000000000000000000000000000000000000000000 PUSH0 MSTORE PUSH1 0x11 PUSH1 0x4 MSTORE PUSH1 0x24 PUSH0 REVERT JUMPDEST PUSH0 PUSH2 0x47D DUP3 PUSH2 0x2DD JUMP JUMPDEST SWAP2 POP PUSH2 0x488 DUP4 PUSH2 0x2DD JUMP JUMPDEST SWAP3 POP DUP3 PUSH2 0x498 JUMPI PUSH2 0x497 PUSH2 0x419 JUMP JUMPDEST JUMPDEST DUP3 DUP3 DIV SWAP1 POP SWAP3 SWAP2 POP POP JUMP JUMPDEST PUSH0 PUSH2 0x4AD DUP3 PUSH2 0x2DD JUMP JUMPDEST SWAP2 POP PUSH2 0x4B8 DUP4 PUSH2 0x2DD JUMP JUMPDEST SWAP3 POP DUP3 DUP3 MUL PUSH2 0x4C6 DUP2 PUSH2 0x2DD JUMP JUMPDEST SWAP2 POP DUP3 DUP3 DIV DUP5 EQ DUP4 ISZERO OR PUSH2 0x4DD JUMPI PUSH2 0x4DC PUSH2 0x446 JUMP JUMPDEST JUMPDEST POP SWAP3 SWAP2 POP POP JUMP JUMPDEST PUSH0 PUSH2 0x4EE DUP3 PUSH2 0x2DD JUMP JUMPDEST SWAP2 POP PUSH2 0x4F9 DUP4 PUSH2 0x2DD JUMP JUMPDEST SWAP3 POP DUP3 DUP3 SUB SWAP1 POP DUP2 DUP2 GT ISZERO PUSH2 0x511 JUMPI PUSH2 0x510 PUSH2 0x446 JUMP JUMPDEST JUMPDEST SWAP3 SWAP2 POP POP JUMP JUMPDEST PUSH0 DUP1 REVERT JUMPDEST PUSH0 PUSH1 0xFF DUP3 AND SWAP1 POP SWAP2 SWAP1 POP JUMP JUMPDEST PUSH2 0x530 DUP2 PUSH2 0x51B JUMP JUMPDEST DUP2 EQ PUSH2 0x53A JUMPI PUSH0 DUP1 REVERT JUMPDEST POP JUMP JUMPDEST PUSH0 DUP2 MLOAD SWAP1 POP PUSH2 0x54B DUP2 PUSH2 0x527 JUMP JUMPDEST SWAP3 SWAP2 POP POP JUMP JUMPDEST PUSH0 PUSH1 0x20 DUP3 DUP5 SUB SLT ISZERO PUSH2 0x566 JUMPI PUSH2 0x565 PUSH2 0x517 JUMP JUMPDEST JUMPDEST PUSH0 PUSH2 0x573 DUP5 DUP3 DUP6 ADD PUSH2 0x53D JUMP JUMPDEST SWAP2 POP POP SWAP3 SWAP2 POP POP JUMP JUMPDEST PUSH0 PUSH2 0x586 DUP3 PUSH2 0x30E JUMP JUMPDEST SWAP1 POP SWAP2 SWAP1 POP JUMP JUMPDEST PUSH2 0x596 DUP2 PUSH2 0x57C JUMP JUMPDEST DUP3 MSTORE POP POP JUMP JUMPDEST PUSH0 PUSH1 0x60 DUP3 ADD SWAP1 POP PUSH2 0x5AF PUSH0 DUP4 ADD DUP7 PUSH2 0x58D JUMP JUMPDEST PUSH2 0x5BC PUSH1 0x20 DUP4 ADD DUP6 PUSH2 0x58D JUMP JUMPDEST PUSH2 0x5C9 PUSH1 0x40 DUP4 ADD DUP5 PUSH2 0x2E6 JUMP JUMPDEST SWAP5 SWAP4 POP POP POP POP JUMP JUMPDEST PUSH0 DUP2 ISZERO ISZERO SWAP1 POP SWAP2 SWAP1 POP JUMP JUMPDEST PUSH2 0x5E5 DUP2 PUSH2 0x5D1 JUMP JUMPDEST DUP2 EQ PUSH2 0x5EF JUMPI PUSH0 DUP1 REVERT JUMPDEST POP JUMP JUMPDEST PUSH0 DUP2 MLOAD SWAP1 POP PUSH2 0x600 DUP2 PUSH2 0x5DC JUMP JUMPDEST SWAP3 SWAP2 POP POP JUMP JUMPDEST PUSH0 PUSH1 0x20 DUP3 DUP5 SUB SLT ISZERO PUSH2 0x61B JUMPI PUSH2 0x61A PUSH2 0x517 JUMP JUMPDEST JUMPDEST PUSH0 PUSH2 0x628 DUP5 DUP3 DUP6 ADD PUSH2 0x5F2 JUMP JUMPDEST SWAP2 POP POP SWAP3 SWAP2 POP POP JUMP INVALID LOG2 PUSH5 0x6970667358 0x22 SLT KECCAK256 0xE4 BASEFEE 0xA8 SWAP12 SWAP6 0xCB COINBASE GASLIMIT 0xF6 0xCA 0xD1 0xF9 0xEB 0x1F PUSH17 0x13DC4D81FC40625942860E424943C66B0A PUSH5 0x736F6C6343 STOP ADDMOD BYTE STOP CALLER "
				},
				"gasEstimates": {
					"creation": {
						"codeDepositCost": "327800",
						"executionCost": "infinite",
						"totalCost": "infinite"
					},
					"external": {
						"purchaseACoffe()": "infinite",
						"token()": "infinite",
						"tokenPriceInWei()": "2402"
					}
				},
				"methodIdentifiers": {
					"purchaseACoffe()": "e7e78652",
					"token()": "fc0c546a",
					"tokenPriceInWei()": "2f8de810"
				}
			},
			"storageLayout": {
				"storage": [
					{
						"astId": 791,
						"contract": "contracts/SampleTokenSale.sol:TokenSale",
						"label": "tokenPriceInWei",
						"offset": 0,
						"slot": "0",
						"type": "t_uint256"
					},
					{
						"astId": 794,
						"contract": "contracts/SampleTokenSale.sol:TokenSale",
						"label": "token",
						"offset": 0,
						"slot": "1",
						"type": "t_contract(ERC20)651"
					},
					{
						"astId": 796,
						"contract": "contracts/SampleTokenSale.sol:TokenSale",
						"label": "tokenOwner",
						"offset": 0,
						"slot": "2",
						"type": "t_address"
					}
				],
				"types": {
					"t_address": {
						"encoding": "inplace",
						"label": "address",
						"numberOfBytes": "20"
					},
					"t_contract(ERC20)651": {
						"encoding": "inplace",
						"label": "contract ERC20",
						"numberOfBytes": "20"
					},
					"t_uint256": {
						"encoding": "inplace",
						"label": "uint256",
						"numberOfBytes": "32"
					}
				}
			},
			"userdoc": {
				"kind": "user",
				"methods": {},
				"version": 1
			}
		}
	}
}