{
	"contracts/ExampleModifiers.sol": {
		"InheritanceModifierExample": {
			"abi": [
				{
					"inputs": [],
					"stateMutability": "nonpayable",
					"type": "constructor"
				},
				{
					"inputs": [],
					"name": "burnToken",
					"outputs": [],
					"stateMutability": "nonpayable",
					"type": "function"
				},
				{
					"inputs": [],
					"name": "createNewToken",
					"outputs": [],
					"stateMutability": "nonpayable",
					"type": "function"
				},
				{
					"inputs": [],
					"name": "purchaseToken",
					"outputs": [],
					"stateMutability": "payable",
					"type": "function"
				},
				{
					"inputs": [
						{
							"internalType": "address",
							"name": "_to",
							"type": "address"
						},
						{
							"internalType": "uint256",
							"name": "_amount",
							"type": "uint256"
						}
					],
					"name": "sendToken",
					"outputs": [],
					"stateMutability": "nonpayable",
					"type": "function"
				},
				{
					"inputs": [
						{
							"internalType": "address",
							"name": "",
							"type": "address"
						}
					],
					"name": "tokenBalance",
					"outputs": [
						{
							"internalType": "uint256",
							"name": "",
							"type": "uint256"
						}
					],
					"stateMutability": "view",
					"type": "function"
				}
			],
			"devdoc": {
				"kind": "dev",
				"methods": {},
				"version": 1
			},
			"evm": {
				"assembly": "    /* \"contracts/ExampleModifiers.sol\":86:972  contract InheritanceModifierExample is Owner{... */\n  mstore(0x40, 0x80)\n    /* \"contracts/ExampleModifiers.sol\":210:217  1 ether */\n  0x0de0b6b3a7640000\n    /* \"contracts/ExampleModifiers.sol\":192:217  uint tokenPrice = 1 ether */\n  0x02\n  sstore\n    /* \"contracts/ExampleModifiers.sol\":224:297  constructor() {... */\n  callvalue\n  dup1\n  iszero\n  tag_1\n  jumpi\n  0x00\n  dup1\n  revert\ntag_1:\n  pop\n    /* \"contracts/Ownable.sol\":134:144  msg.sender */\n  caller\n    /* \"contracts/Ownable.sol\":126:131  owner */\n  0x00\n  dup1\n    /* \"contracts/Ownable.sol\":126:144  owner = msg.sender */\n  0x0100\n  exp\n  dup2\n  sload\n  dup2\n  0xffffffffffffffffffffffffffffffffffffffff\n  mul\n  not\n  and\n  swap1\n  dup4\n  0xffffffffffffffffffffffffffffffffffffffff\n  and\n  mul\n  or\n  swap1\n  sstore\n  pop\n    /* \"contracts/ExampleModifiers.sol\":286:289  100 */\n  0x64\n    /* \"contracts/ExampleModifiers.sol\":259:271  tokenBalance */\n  0x01\n    /* \"contracts/ExampleModifiers.sol\":259:283  tokenBalance[msg.sender] */\n  0x00\n    /* \"contracts/ExampleModifiers.sol\":272:282  msg.sender */\n  caller\n    /* \"contracts/ExampleModifiers.sol\":259:283  tokenBalance[msg.sender] */\n  0xffffffffffffffffffffffffffffffffffffffff\n  and\n  0xffffffffffffffffffffffffffffffffffffffff\n  and\n  dup2\n  mstore\n  0x20\n  add\n  swap1\n  dup2\n  mstore\n  0x20\n  add\n  0x00\n  keccak256\n    /* \"contracts/ExampleModifiers.sol\":259:289  tokenBalance[msg.sender] = 100 */\n  dup2\n  swap1\n  sstore\n  pop\n    /* \"contracts/ExampleModifiers.sol\":86:972  contract InheritanceModifierExample is Owner{... */\n  dataSize(sub_0)\n  dup1\n  dataOffset(sub_0)\n  0x00\n  codecopy\n  0x00\n  return\nstop\n\nsub_0: assembly {\n        /* \"contracts/ExampleModifiers.sol\":86:972  contract InheritanceModifierExample is Owner{... */\n      mstore(0x40, 0x80)\n      jumpi(tag_1, lt(calldatasize, 0x04))\n      shr(0xe0, calldataload(0x00))\n      dup1\n      0x412664ae\n      eq\n      tag_2\n      jumpi\n      dup1\n      0x754fc38c\n      eq\n      tag_3\n      jumpi\n      dup1\n      0xa95c4d62\n      eq\n      tag_4\n      jumpi\n      dup1\n      0xeedc966a\n      eq\n      tag_5\n      jumpi\n      dup1\n      0xfaa0a264\n      eq\n      tag_6\n      jumpi\n    tag_1:\n      0x00\n      dup1\n      revert\n        /* \"contracts/ExampleModifiers.sol\":745:967  function sendToken(address _to, uint _amount) public {... */\n    tag_2:\n      callvalue\n      dup1\n      iszero\n      tag_7\n      jumpi\n      0x00\n      dup1\n      revert\n    tag_7:\n      pop\n      tag_8\n      0x04\n      dup1\n      calldatasize\n      sub\n      dup2\n      add\n      swap1\n      tag_9\n      swap2\n      swap1\n      tag_10\n      jump\t// in\n    tag_9:\n      tag_11\n      jump\t// in\n    tag_8:\n      stop\n        /* \"contracts/ExampleModifiers.sol\":305:388  function createNewToken() public onlyOwner {... */\n    tag_3:\n      callvalue\n      dup1\n      iszero\n      tag_12\n      jumpi\n      0x00\n      dup1\n      revert\n    tag_12:\n      pop\n      tag_13\n      tag_14\n      jump\t// in\n    tag_13:\n      stop\n        /* \"contracts/ExampleModifiers.sol\":481:737  function purchaseToken() public payable {... */\n    tag_4:\n      tag_15\n      tag_16\n      jump\t// in\n    tag_15:\n      stop\n        /* \"contracts/ExampleModifiers.sol\":139:183  mapping(address => uint) public tokenBalance */\n    tag_5:\n      callvalue\n      dup1\n      iszero\n      tag_17\n      jumpi\n      0x00\n      dup1\n      revert\n    tag_17:\n      pop\n      tag_18\n      0x04\n      dup1\n      calldatasize\n      sub\n      dup2\n      add\n      swap1\n      tag_19\n      swap2\n      swap1\n      tag_20\n      jump\t// in\n    tag_19:\n      tag_21\n      jump\t// in\n    tag_18:\n      mload(0x40)\n      tag_22\n      swap2\n      swap1\n      tag_23\n      jump\t// in\n    tag_22:\n      mload(0x40)\n      dup1\n      swap2\n      sub\n      swap1\n      return\n        /* \"contracts/ExampleModifiers.sol\":396:473  function burnToken() public onlyOwner{... */\n    tag_6:\n      callvalue\n      dup1\n      iszero\n      tag_24\n      jumpi\n      0x00\n      dup1\n      revert\n    tag_24:\n      pop\n      tag_25\n      tag_26\n      jump\t// in\n    tag_25:\n      stop\n        /* \"contracts/ExampleModifiers.sol\":745:967  function sendToken(address _to, uint _amount) public {... */\n    tag_11:\n        /* \"contracts/ExampleModifiers.sol\":845:852  _amount */\n      dup1\n        /* \"contracts/ExampleModifiers.sol\":817:829  tokenBalance */\n      0x01\n        /* \"contracts/ExampleModifiers.sol\":817:841  tokenBalance[msg.sender] */\n      0x00\n        /* \"contracts/ExampleModifiers.sol\":830:840  msg.sender */\n      caller\n        /* \"contracts/ExampleModifiers.sol\":817:841  tokenBalance[msg.sender] */\n      0xffffffffffffffffffffffffffffffffffffffff\n      and\n      0xffffffffffffffffffffffffffffffffffffffff\n      and\n      dup2\n      mstore\n      0x20\n      add\n      swap1\n      dup2\n      mstore\n      0x20\n      add\n      0x00\n      keccak256\n      sload\n        /* \"contracts/ExampleModifiers.sol\":817:852  tokenBalance[msg.sender] >= _amount */\n      lt\n      iszero\n        /* \"contracts/ExampleModifiers.sol\":809:874  require(tokenBalance[msg.sender] >= _amount, \"Not enough tokens\") */\n      tag_28\n      jumpi\n      mload(0x40)\n      0x08c379a000000000000000000000000000000000000000000000000000000000\n      dup2\n      mstore\n      0x04\n      add\n      tag_29\n      swap1\n      tag_30\n      jump\t// in\n    tag_29:\n      mload(0x40)\n      dup1\n      swap2\n      sub\n      swap1\n      revert\n    tag_28:\n        /* \"contracts/ExampleModifiers.sol\":913:920  _amount */\n      dup1\n        /* \"contracts/ExampleModifiers.sol\":885:897  tokenBalance */\n      0x01\n        /* \"contracts/ExampleModifiers.sol\":885:909  tokenBalance[msg.sender] */\n      0x00\n        /* \"contracts/ExampleModifiers.sol\":898:908  msg.sender */\n      caller\n        /* \"contracts/ExampleModifiers.sol\":885:909  tokenBalance[msg.sender] */\n      0xffffffffffffffffffffffffffffffffffffffff\n      and\n      0xffffffffffffffffffffffffffffffffffffffff\n      and\n      dup2\n      mstore\n      0x20\n      add\n      swap1\n      dup2\n      mstore\n      0x20\n      add\n      0x00\n      keccak256\n      0x00\n        /* \"contracts/ExampleModifiers.sol\":885:920  tokenBalance[msg.sender] -= _amount */\n      dup3\n      dup3\n      sload\n      tag_31\n      swap2\n      swap1\n      tag_32\n      jump\t// in\n    tag_31:\n      swap3\n      pop\n      pop\n      dup2\n      swap1\n      sstore\n      pop\n        /* \"contracts/ExampleModifiers.sol\":952:959  _amount */\n      dup1\n        /* \"contracts/ExampleModifiers.sol\":931:943  tokenBalance */\n      0x01\n        /* \"contracts/ExampleModifiers.sol\":931:948  tokenBalance[_to] */\n      0x00\n        /* \"contracts/ExampleModifiers.sol\":944:947  _to */\n      dup5\n        /* \"contracts/ExampleModifiers.sol\":931:948  tokenBalance[_to] */\n      0xffffffffffffffffffffffffffffffffffffffff\n      and\n      0xffffffffffffffffffffffffffffffffffffffff\n      and\n      dup2\n      mstore\n      0x20\n      add\n      swap1\n      dup2\n      mstore\n      0x20\n      add\n      0x00\n      keccak256\n      0x00\n        /* \"contracts/ExampleModifiers.sol\":931:959  tokenBalance[_to] += _amount */\n      dup3\n      dup3\n      sload\n      tag_33\n      swap2\n      swap1\n      tag_34\n      jump\t// in\n    tag_33:\n      swap3\n      pop\n      pop\n      dup2\n      swap1\n      sstore\n      pop\n        /* \"contracts/ExampleModifiers.sol\":745:967  function sendToken(address _to, uint _amount) public {... */\n      pop\n      pop\n      jump\t// out\n        /* \"contracts/ExampleModifiers.sol\":305:388  function createNewToken() public onlyOwner {... */\n    tag_14:\n        /* \"contracts/Ownable.sol\":211:216  owner */\n      0x00\n      dup1\n      sload\n      swap1\n      0x0100\n      exp\n      swap1\n      div\n      0xffffffffffffffffffffffffffffffffffffffff\n      and\n        /* \"contracts/Ownable.sol\":197:216  msg.sender == owner */\n      0xffffffffffffffffffffffffffffffffffffffff\n      and\n        /* \"contracts/Ownable.sol\":197:207  msg.sender */\n      caller\n        /* \"contracts/Ownable.sol\":197:216  msg.sender == owner */\n      0xffffffffffffffffffffffffffffffffffffffff\n      and\n      eq\n        /* \"contracts/Ownable.sol\":189:240  require(msg.sender == owner, \"You are not allowed\") */\n      tag_36\n      jumpi\n      mload(0x40)\n      0x08c379a000000000000000000000000000000000000000000000000000000000\n      dup2\n      mstore\n      0x04\n      add\n      tag_37\n      swap1\n      tag_38\n      jump\t// in\n    tag_37:\n      mload(0x40)\n      dup1\n      swap2\n      sub\n      swap1\n      revert\n    tag_36:\n        /* \"contracts/ExampleModifiers.sol\":359:371  tokenBalance */\n      0x01\n        /* \"contracts/ExampleModifiers.sol\":359:378  tokenBalance[owner] */\n      0x00\n        /* \"contracts/ExampleModifiers.sol\":372:377  owner */\n      dup1\n      0x00\n      swap1\n      sload\n      swap1\n      0x0100\n      exp\n      swap1\n      div\n      0xffffffffffffffffffffffffffffffffffffffff\n      and\n        /* \"contracts/ExampleModifiers.sol\":359:378  tokenBalance[owner] */\n      0xffffffffffffffffffffffffffffffffffffffff\n      and\n      0xffffffffffffffffffffffffffffffffffffffff\n      and\n      dup2\n      mstore\n      0x20\n      add\n      swap1\n      dup2\n      mstore\n      0x20\n      add\n      0x00\n      keccak256\n      0x00\n        /* \"contracts/ExampleModifiers.sol\":359:380  tokenBalance[owner]++ */\n      dup2\n      sload\n      dup1\n      swap3\n      swap2\n      swap1\n      tag_40\n      swap1\n      tag_41\n      jump\t// in\n    tag_40:\n      swap2\n      swap1\n      pop\n      sstore\n      pop\n        /* \"contracts/ExampleModifiers.sol\":305:388  function createNewToken() public onlyOwner {... */\n      jump\t// out\n        /* \"contracts/ExampleModifiers.sol\":481:737  function purchaseToken() public payable {... */\n    tag_16:\n        /* \"contracts/ExampleModifiers.sol\":589:590  0 */\n      0x00\n        /* \"contracts/ExampleModifiers.sol\":577:586  msg.value */\n      callvalue\n        /* \"contracts/ExampleModifiers.sol\":563:573  tokenPrice */\n      sload(0x02)\n        /* \"contracts/ExampleModifiers.sol\":541:553  tokenBalance */\n      0x01\n        /* \"contracts/ExampleModifiers.sol\":541:560  tokenBalance[owner] */\n      0x00\n        /* \"contracts/ExampleModifiers.sol\":554:559  owner */\n      dup1\n      0x00\n      swap1\n      sload\n      swap1\n      0x0100\n      exp\n      swap1\n      div\n      0xffffffffffffffffffffffffffffffffffffffff\n      and\n        /* \"contracts/ExampleModifiers.sol\":541:560  tokenBalance[owner] */\n      0xffffffffffffffffffffffffffffffffffffffff\n      and\n      0xffffffffffffffffffffffffffffffffffffffff\n      and\n      dup2\n      mstore\n      0x20\n      add\n      swap1\n      dup2\n      mstore\n      0x20\n      add\n      0x00\n      keccak256\n      sload\n        /* \"contracts/ExampleModifiers.sol\":541:573  tokenBalance[owner] * tokenPrice */\n      tag_43\n      swap2\n      swap1\n      tag_44\n      jump\t// in\n    tag_43:\n        /* \"contracts/ExampleModifiers.sol\":540:586  (tokenBalance[owner] * tokenPrice) / msg.value */\n      tag_45\n      swap2\n      swap1\n      tag_46\n      jump\t// in\n    tag_45:\n        /* \"contracts/ExampleModifiers.sol\":540:590  (tokenBalance[owner] * tokenPrice) / msg.value > 0 */\n      gt\n        /* \"contracts/ExampleModifiers.sol\":532:612  require((tokenBalance[owner] * tokenPrice) / msg.value > 0, \"not enough tokens\") */\n      tag_47\n      jumpi\n      mload(0x40)\n      0x08c379a000000000000000000000000000000000000000000000000000000000\n      dup2\n      mstore\n      0x04\n      add\n      tag_48\n      swap1\n      tag_49\n      jump\t// in\n    tag_48:\n      mload(0x40)\n      dup1\n      swap2\n      sub\n      swap1\n      revert\n    tag_47:\n        /* \"contracts/ExampleModifiers.sol\":658:668  tokenPrice */\n      sload(0x02)\n        /* \"contracts/ExampleModifiers.sol\":646:655  msg.value */\n      callvalue\n        /* \"contracts/ExampleModifiers.sol\":646:668  msg.value / tokenPrice */\n      tag_50\n      swap2\n      swap1\n      tag_46\n      jump\t// in\n    tag_50:\n        /* \"contracts/ExampleModifiers.sol\":623:635  tokenBalance */\n      0x01\n        /* \"contracts/ExampleModifiers.sol\":623:642  tokenBalance[owner] */\n      0x00\n        /* \"contracts/ExampleModifiers.sol\":636:641  owner */\n      dup1\n      0x00\n      swap1\n      sload\n      swap1\n      0x0100\n      exp\n      swap1\n      div\n      0xffffffffffffffffffffffffffffffffffffffff\n      and\n        /* \"contracts/ExampleModifiers.sol\":623:642  tokenBalance[owner] */\n      0xffffffffffffffffffffffffffffffffffffffff\n      and\n      0xffffffffffffffffffffffffffffffffffffffff\n      and\n      dup2\n      mstore\n      0x20\n      add\n      swap1\n      dup2\n      mstore\n      0x20\n      add\n      0x00\n      keccak256\n      0x00\n        /* \"contracts/ExampleModifiers.sol\":623:668  tokenBalance[owner] -= msg.value / tokenPrice */\n      dup3\n      dup3\n      sload\n      tag_51\n      swap2\n      swap1\n      tag_32\n      jump\t// in\n    tag_51:\n      swap3\n      pop\n      pop\n      dup2\n      swap1\n      sstore\n      pop\n        /* \"contracts/ExampleModifiers.sol\":719:729  tokenPrice */\n      sload(0x02)\n        /* \"contracts/ExampleModifiers.sol\":707:716  msg.value */\n      callvalue\n        /* \"contracts/ExampleModifiers.sol\":707:729  msg.value / tokenPrice */\n      tag_52\n      swap2\n      swap1\n      tag_46\n      jump\t// in\n    tag_52:\n        /* \"contracts/ExampleModifiers.sol\":679:691  tokenBalance */\n      0x01\n        /* \"contracts/ExampleModifiers.sol\":679:703  tokenBalance[msg.sender] */\n      0x00\n        /* \"contracts/ExampleModifiers.sol\":692:702  msg.sender */\n      caller\n        /* \"contracts/ExampleModifiers.sol\":679:703  tokenBalance[msg.sender] */\n      0xffffffffffffffffffffffffffffffffffffffff\n      and\n      0xffffffffffffffffffffffffffffffffffffffff\n      and\n      dup2\n      mstore\n      0x20\n      add\n      swap1\n      dup2\n      mstore\n      0x20\n      add\n      0x00\n      keccak256\n      0x00\n        /* \"contracts/ExampleModifiers.sol\":679:729  tokenBalance[msg.sender] += msg.value / tokenPrice */\n      dup3\n      dup3\n      sload\n      tag_53\n      swap2\n      swap1\n      tag_34\n      jump\t// in\n    tag_53:\n      swap3\n      pop\n      pop\n      dup2\n      swap1\n      sstore\n      pop\n        /* \"contracts/ExampleModifiers.sol\":481:737  function purchaseToken() public payable {... */\n      jump\t// out\n        /* \"contracts/ExampleModifiers.sol\":139:183  mapping(address => uint) public tokenBalance */\n    tag_21:\n      mstore(0x20, 0x01)\n      dup1\n      0x00\n      mstore\n      keccak256(0x00, 0x40)\n      0x00\n      swap2\n      pop\n      swap1\n      pop\n      sload\n      dup2\n      jump\t// out\n        /* \"contracts/ExampleModifiers.sol\":396:473  function burnToken() public onlyOwner{... */\n    tag_26:\n        /* \"contracts/Ownable.sol\":211:216  owner */\n      0x00\n      dup1\n      sload\n      swap1\n      0x0100\n      exp\n      swap1\n      div\n      0xffffffffffffffffffffffffffffffffffffffff\n      and\n        /* \"contracts/Ownable.sol\":197:216  msg.sender == owner */\n      0xffffffffffffffffffffffffffffffffffffffff\n      and\n        /* \"contracts/Ownable.sol\":197:207  msg.sender */\n      caller\n        /* \"contracts/Ownable.sol\":197:216  msg.sender == owner */\n      0xffffffffffffffffffffffffffffffffffffffff\n      and\n      eq\n        /* \"contracts/Ownable.sol\":189:240  require(msg.sender == owner, \"You are not allowed\") */\n      tag_55\n      jumpi\n      mload(0x40)\n      0x08c379a000000000000000000000000000000000000000000000000000000000\n      dup2\n      mstore\n      0x04\n      add\n      tag_56\n      swap1\n      tag_38\n      jump\t// in\n    tag_56:\n      mload(0x40)\n      dup1\n      swap2\n      sub\n      swap1\n      revert\n    tag_55:\n        /* \"contracts/ExampleModifiers.sol\":444:456  tokenBalance */\n      0x01\n        /* \"contracts/ExampleModifiers.sol\":444:463  tokenBalance[owner] */\n      0x00\n        /* \"contracts/ExampleModifiers.sol\":457:462  owner */\n      dup1\n      0x00\n      swap1\n      sload\n      swap1\n      0x0100\n      exp\n      swap1\n      div\n      0xffffffffffffffffffffffffffffffffffffffff\n      and\n        /* \"contracts/ExampleModifiers.sol\":444:463  tokenBalance[owner] */\n      0xffffffffffffffffffffffffffffffffffffffff\n      and\n      0xffffffffffffffffffffffffffffffffffffffff\n      and\n      dup2\n      mstore\n      0x20\n      add\n      swap1\n      dup2\n      mstore\n      0x20\n      add\n      0x00\n      keccak256\n      0x00\n        /* \"contracts/ExampleModifiers.sol\":444:465  tokenBalance[owner]-- */\n      dup2\n      sload\n      dup1\n      swap3\n      swap2\n      swap1\n      tag_58\n      swap1\n      tag_59\n      jump\t// in\n    tag_58:\n      swap2\n      swap1\n      pop\n      sstore\n      pop\n        /* \"contracts/ExampleModifiers.sol\":396:473  function burnToken() public onlyOwner{... */\n      jump\t// out\n        /* \"#utility.yul\":88:205   */\n    tag_61:\n        /* \"#utility.yul\":197:198   */\n      0x00\n        /* \"#utility.yul\":194:195   */\n      dup1\n        /* \"#utility.yul\":187:199   */\n      revert\n        /* \"#utility.yul\":334:460   */\n    tag_63:\n        /* \"#utility.yul\":371:378   */\n      0x00\n        /* \"#utility.yul\":411:453   */\n      0xffffffffffffffffffffffffffffffffffffffff\n        /* \"#utility.yul\":404:409   */\n      dup3\n        /* \"#utility.yul\":400:454   */\n      and\n        /* \"#utility.yul\":389:454   */\n      swap1\n      pop\n        /* \"#utility.yul\":334:460   */\n      swap2\n      swap1\n      pop\n      jump\t// out\n        /* \"#utility.yul\":466:562   */\n    tag_64:\n        /* \"#utility.yul\":503:510   */\n      0x00\n        /* \"#utility.yul\":532:556   */\n      tag_86\n        /* \"#utility.yul\":550:555   */\n      dup3\n        /* \"#utility.yul\":532:556   */\n      tag_63\n      jump\t// in\n    tag_86:\n        /* \"#utility.yul\":521:556   */\n      swap1\n      pop\n        /* \"#utility.yul\":466:562   */\n      swap2\n      swap1\n      pop\n      jump\t// out\n        /* \"#utility.yul\":568:690   */\n    tag_65:\n        /* \"#utility.yul\":641:665   */\n      tag_88\n        /* \"#utility.yul\":659:664   */\n      dup2\n        /* \"#utility.yul\":641:665   */\n      tag_64\n      jump\t// in\n    tag_88:\n        /* \"#utility.yul\":634:639   */\n      dup2\n        /* \"#utility.yul\":631:666   */\n      eq\n        /* \"#utility.yul\":621:684   */\n      tag_89\n      jumpi\n        /* \"#utility.yul\":680:681   */\n      0x00\n        /* \"#utility.yul\":677:678   */\n      dup1\n        /* \"#utility.yul\":670:682   */\n      revert\n        /* \"#utility.yul\":621:684   */\n    tag_89:\n        /* \"#utility.yul\":568:690   */\n      pop\n      jump\t// out\n        /* \"#utility.yul\":696:835   */\n    tag_66:\n        /* \"#utility.yul\":742:747   */\n      0x00\n        /* \"#utility.yul\":780:786   */\n      dup2\n        /* \"#utility.yul\":767:787   */\n      calldataload\n        /* \"#utility.yul\":758:787   */\n      swap1\n      pop\n        /* \"#utility.yul\":796:829   */\n      tag_91\n        /* \"#utility.yul\":823:828   */\n      dup2\n        /* \"#utility.yul\":796:829   */\n      tag_65\n      jump\t// in\n    tag_91:\n        /* \"#utility.yul\":696:835   */\n      swap3\n      swap2\n      pop\n      pop\n      jump\t// out\n        /* \"#utility.yul\":841:918   */\n    tag_67:\n        /* \"#utility.yul\":878:885   */\n      0x00\n        /* \"#utility.yul\":907:912   */\n      dup2\n        /* \"#utility.yul\":896:912   */\n      swap1\n      pop\n        /* \"#utility.yul\":841:918   */\n      swap2\n      swap1\n      pop\n      jump\t// out\n        /* \"#utility.yul\":924:1046   */\n    tag_68:\n        /* \"#utility.yul\":997:1021   */\n      tag_94\n        /* \"#utility.yul\":1015:1020   */\n      dup2\n        /* \"#utility.yul\":997:1021   */\n      tag_67\n      jump\t// in\n    tag_94:\n        /* \"#utility.yul\":990:995   */\n      dup2\n        /* \"#utility.yul\":987:1022   */\n      eq\n        /* \"#utility.yul\":977:1040   */\n      tag_95\n      jumpi\n        /* \"#utility.yul\":1036:1037   */\n      0x00\n        /* \"#utility.yul\":1033:1034   */\n      dup1\n        /* \"#utility.yul\":1026:1038   */\n      revert\n        /* \"#utility.yul\":977:1040   */\n    tag_95:\n        /* \"#utility.yul\":924:1046   */\n      pop\n      jump\t// out\n        /* \"#utility.yul\":1052:1191   */\n    tag_69:\n        /* \"#utility.yul\":1098:1103   */\n      0x00\n        /* \"#utility.yul\":1136:1142   */\n      dup2\n        /* \"#utility.yul\":1123:1143   */\n      calldataload\n        /* \"#utility.yul\":1114:1143   */\n      swap1\n      pop\n        /* \"#utility.yul\":1152:1185   */\n      tag_97\n        /* \"#utility.yul\":1179:1184   */\n      dup2\n        /* \"#utility.yul\":1152:1185   */\n      tag_68\n      jump\t// in\n    tag_97:\n        /* \"#utility.yul\":1052:1191   */\n      swap3\n      swap2\n      pop\n      pop\n      jump\t// out\n        /* \"#utility.yul\":1197:1671   */\n    tag_10:\n        /* \"#utility.yul\":1265:1271   */\n      0x00\n        /* \"#utility.yul\":1273:1279   */\n      dup1\n        /* \"#utility.yul\":1322:1324   */\n      0x40\n        /* \"#utility.yul\":1310:1319   */\n      dup4\n        /* \"#utility.yul\":1301:1308   */\n      dup6\n        /* \"#utility.yul\":1297:1320   */\n      sub\n        /* \"#utility.yul\":1293:1325   */\n      slt\n        /* \"#utility.yul\":1290:1409   */\n      iszero\n      tag_99\n      jumpi\n        /* \"#utility.yul\":1328:1407   */\n      tag_100\n      tag_61\n      jump\t// in\n    tag_100:\n        /* \"#utility.yul\":1290:1409   */\n    tag_99:\n        /* \"#utility.yul\":1448:1449   */\n      0x00\n        /* \"#utility.yul\":1473:1526   */\n      tag_101\n        /* \"#utility.yul\":1518:1525   */\n      dup6\n        /* \"#utility.yul\":1509:1515   */\n      dup3\n        /* \"#utility.yul\":1498:1507   */\n      dup7\n        /* \"#utility.yul\":1494:1516   */\n      add\n        /* \"#utility.yul\":1473:1526   */\n      tag_66\n      jump\t// in\n    tag_101:\n        /* \"#utility.yul\":1463:1526   */\n      swap3\n      pop\n        /* \"#utility.yul\":1419:1536   */\n      pop\n        /* \"#utility.yul\":1575:1577   */\n      0x20\n        /* \"#utility.yul\":1601:1654   */\n      tag_102\n        /* \"#utility.yul\":1646:1653   */\n      dup6\n        /* \"#utility.yul\":1637:1643   */\n      dup3\n        /* \"#utility.yul\":1626:1635   */\n      dup7\n        /* \"#utility.yul\":1622:1644   */\n      add\n        /* \"#utility.yul\":1601:1654   */\n      tag_69\n      jump\t// in\n    tag_102:\n        /* \"#utility.yul\":1591:1654   */\n      swap2\n      pop\n        /* \"#utility.yul\":1546:1664   */\n      pop\n        /* \"#utility.yul\":1197:1671   */\n      swap3\n      pop\n      swap3\n      swap1\n      pop\n      jump\t// out\n        /* \"#utility.yul\":1677:2006   */\n    tag_20:\n        /* \"#utility.yul\":1736:1742   */\n      0x00\n        /* \"#utility.yul\":1785:1787   */\n      0x20\n        /* \"#utility.yul\":1773:1782   */\n      dup3\n        /* \"#utility.yul\":1764:1771   */\n      dup5\n        /* \"#utility.yul\":1760:1783   */\n      sub\n        /* \"#utility.yul\":1756:1788   */\n      slt\n        /* \"#utility.yul\":1753:1872   */\n      iszero\n      tag_104\n      jumpi\n        /* \"#utility.yul\":1791:1870   */\n      tag_105\n      tag_61\n      jump\t// in\n    tag_105:\n        /* \"#utility.yul\":1753:1872   */\n    tag_104:\n        /* \"#utility.yul\":1911:1912   */\n      0x00\n        /* \"#utility.yul\":1936:1989   */\n      tag_106\n        /* \"#utility.yul\":1981:1988   */\n      dup5\n        /* \"#utility.yul\":1972:1978   */\n      dup3\n        /* \"#utility.yul\":1961:1970   */\n      dup6\n        /* \"#utility.yul\":1957:1979   */\n      add\n        /* \"#utility.yul\":1936:1989   */\n      tag_66\n      jump\t// in\n    tag_106:\n        /* \"#utility.yul\":1926:1989   */\n      swap2\n      pop\n        /* \"#utility.yul\":1882:1999   */\n      pop\n        /* \"#utility.yul\":1677:2006   */\n      swap3\n      swap2\n      pop\n      pop\n      jump\t// out\n        /* \"#utility.yul\":2012:2130   */\n    tag_70:\n        /* \"#utility.yul\":2099:2123   */\n      tag_108\n        /* \"#utility.yul\":2117:2122   */\n      dup2\n        /* \"#utility.yul\":2099:2123   */\n      tag_67\n      jump\t// in\n    tag_108:\n        /* \"#utility.yul\":2094:2097   */\n      dup3\n        /* \"#utility.yul\":2087:2124   */\n      mstore\n        /* \"#utility.yul\":2012:2130   */\n      pop\n      pop\n      jump\t// out\n        /* \"#utility.yul\":2136:2358   */\n    tag_23:\n        /* \"#utility.yul\":2229:2233   */\n      0x00\n        /* \"#utility.yul\":2267:2269   */\n      0x20\n        /* \"#utility.yul\":2256:2265   */\n      dup3\n        /* \"#utility.yul\":2252:2270   */\n      add\n        /* \"#utility.yul\":2244:2270   */\n      swap1\n      pop\n        /* \"#utility.yul\":2280:2351   */\n      tag_110\n        /* \"#utility.yul\":2348:2349   */\n      0x00\n        /* \"#utility.yul\":2337:2346   */\n      dup4\n        /* \"#utility.yul\":2333:2350   */\n      add\n        /* \"#utility.yul\":2324:2330   */\n      dup5\n        /* \"#utility.yul\":2280:2351   */\n      tag_70\n      jump\t// in\n    tag_110:\n        /* \"#utility.yul\":2136:2358   */\n      swap3\n      swap2\n      pop\n      pop\n      jump\t// out\n        /* \"#utility.yul\":2364:2533   */\n    tag_71:\n        /* \"#utility.yul\":2448:2459   */\n      0x00\n        /* \"#utility.yul\":2482:2488   */\n      dup3\n        /* \"#utility.yul\":2477:2480   */\n      dup3\n        /* \"#utility.yul\":2470:2489   */\n      mstore\n        /* \"#utility.yul\":2522:2526   */\n      0x20\n        /* \"#utility.yul\":2517:2520   */\n      dup3\n        /* \"#utility.yul\":2513:2527   */\n      add\n        /* \"#utility.yul\":2498:2527   */\n      swap1\n      pop\n        /* \"#utility.yul\":2364:2533   */\n      swap3\n      swap2\n      pop\n      pop\n      jump\t// out\n        /* \"#utility.yul\":2539:2706   */\n    tag_72:\n        /* \"#utility.yul\":2679:2698   */\n      0x4e6f7420656e6f75676820746f6b656e73000000000000000000000000000000\n        /* \"#utility.yul\":2675:2676   */\n      0x00\n        /* \"#utility.yul\":2667:2673   */\n      dup3\n        /* \"#utility.yul\":2663:2677   */\n      add\n        /* \"#utility.yul\":2656:2699   */\n      mstore\n        /* \"#utility.yul\":2539:2706   */\n      pop\n      jump\t// out\n        /* \"#utility.yul\":2712:3078   */\n    tag_73:\n        /* \"#utility.yul\":2854:2857   */\n      0x00\n        /* \"#utility.yul\":2875:2942   */\n      tag_114\n        /* \"#utility.yul\":2939:2941   */\n      0x11\n        /* \"#utility.yul\":2934:2937   */\n      dup4\n        /* \"#utility.yul\":2875:2942   */\n      tag_71\n      jump\t// in\n    tag_114:\n        /* \"#utility.yul\":2868:2942   */\n      swap2\n      pop\n        /* \"#utility.yul\":2951:3044   */\n      tag_115\n        /* \"#utility.yul\":3040:3043   */\n      dup3\n        /* \"#utility.yul\":2951:3044   */\n      tag_72\n      jump\t// in\n    tag_115:\n        /* \"#utility.yul\":3069:3071   */\n      0x20\n        /* \"#utility.yul\":3064:3067   */\n      dup3\n        /* \"#utility.yul\":3060:3072   */\n      add\n        /* \"#utility.yul\":3053:3072   */\n      swap1\n      pop\n        /* \"#utility.yul\":2712:3078   */\n      swap2\n      swap1\n      pop\n      jump\t// out\n        /* \"#utility.yul\":3084:3503   */\n    tag_30:\n        /* \"#utility.yul\":3250:3254   */\n      0x00\n        /* \"#utility.yul\":3288:3290   */\n      0x20\n        /* \"#utility.yul\":3277:3286   */\n      dup3\n        /* \"#utility.yul\":3273:3291   */\n      add\n        /* \"#utility.yul\":3265:3291   */\n      swap1\n      pop\n        /* \"#utility.yul\":3337:3346   */\n      dup2\n        /* \"#utility.yul\":3331:3335   */\n      dup2\n        /* \"#utility.yul\":3327:3347   */\n      sub\n        /* \"#utility.yul\":3323:3324   */\n      0x00\n        /* \"#utility.yul\":3312:3321   */\n      dup4\n        /* \"#utility.yul\":3308:3325   */\n      add\n        /* \"#utility.yul\":3301:3348   */\n      mstore\n        /* \"#utility.yul\":3365:3496   */\n      tag_117\n        /* \"#utility.yul\":3491:3495   */\n      dup2\n        /* \"#utility.yul\":3365:3496   */\n      tag_73\n      jump\t// in\n    tag_117:\n        /* \"#utility.yul\":3357:3496   */\n      swap1\n      pop\n        /* \"#utility.yul\":3084:3503   */\n      swap2\n      swap1\n      pop\n      jump\t// out\n        /* \"#utility.yul\":3509:3689   */\n    tag_74:\n        /* \"#utility.yul\":3557:3634   */\n      0x4e487b7100000000000000000000000000000000000000000000000000000000\n        /* \"#utility.yul\":3554:3555   */\n      0x00\n        /* \"#utility.yul\":3547:3635   */\n      mstore\n        /* \"#utility.yul\":3654:3658   */\n      0x11\n        /* \"#utility.yul\":3651:3652   */\n      0x04\n        /* \"#utility.yul\":3644:3659   */\n      mstore\n        /* \"#utility.yul\":3678:3682   */\n      0x24\n        /* \"#utility.yul\":3675:3676   */\n      0x00\n        /* \"#utility.yul\":3668:3683   */\n      revert\n        /* \"#utility.yul\":3695:3889   */\n    tag_32:\n        /* \"#utility.yul\":3735:3739   */\n      0x00\n        /* \"#utility.yul\":3755:3775   */\n      tag_120\n        /* \"#utility.yul\":3773:3774   */\n      dup3\n        /* \"#utility.yul\":3755:3775   */\n      tag_67\n      jump\t// in\n    tag_120:\n        /* \"#utility.yul\":3750:3775   */\n      swap2\n      pop\n        /* \"#utility.yul\":3789:3809   */\n      tag_121\n        /* \"#utility.yul\":3807:3808   */\n      dup4\n        /* \"#utility.yul\":3789:3809   */\n      tag_67\n      jump\t// in\n    tag_121:\n        /* \"#utility.yul\":3784:3809   */\n      swap3\n      pop\n        /* \"#utility.yul\":3833:3834   */\n      dup3\n        /* \"#utility.yul\":3830:3831   */\n      dup3\n        /* \"#utility.yul\":3826:3835   */\n      sub\n        /* \"#utility.yul\":3818:3835   */\n      swap1\n      pop\n        /* \"#utility.yul\":3857:3858   */\n      dup2\n        /* \"#utility.yul\":3851:3855   */\n      dup2\n        /* \"#utility.yul\":3848:3859   */\n      gt\n        /* \"#utility.yul\":3845:3882   */\n      iszero\n      tag_122\n      jumpi\n        /* \"#utility.yul\":3862:3880   */\n      tag_123\n      tag_74\n      jump\t// in\n    tag_123:\n        /* \"#utility.yul\":3845:3882   */\n    tag_122:\n        /* \"#utility.yul\":3695:3889   */\n      swap3\n      swap2\n      pop\n      pop\n      jump\t// out\n        /* \"#utility.yul\":3895:4086   */\n    tag_34:\n        /* \"#utility.yul\":3935:3938   */\n      0x00\n        /* \"#utility.yul\":3954:3974   */\n      tag_125\n        /* \"#utility.yul\":3972:3973   */\n      dup3\n        /* \"#utility.yul\":3954:3974   */\n      tag_67\n      jump\t// in\n    tag_125:\n        /* \"#utility.yul\":3949:3974   */\n      swap2\n      pop\n        /* \"#utility.yul\":3988:4008   */\n      tag_126\n        /* \"#utility.yul\":4006:4007   */\n      dup4\n        /* \"#utility.yul\":3988:4008   */\n      tag_67\n      jump\t// in\n    tag_126:\n        /* \"#utility.yul\":3983:4008   */\n      swap3\n      pop\n        /* \"#utility.yul\":4031:4032   */\n      dup3\n        /* \"#utility.yul\":4028:4029   */\n      dup3\n        /* \"#utility.yul\":4024:4033   */\n      add\n        /* \"#utility.yul\":4017:4033   */\n      swap1\n      pop\n        /* \"#utility.yul\":4052:4055   */\n      dup1\n        /* \"#utility.yul\":4049:4050   */\n      dup3\n        /* \"#utility.yul\":4046:4056   */\n      gt\n        /* \"#utility.yul\":4043:4079   */\n      iszero\n      tag_127\n      jumpi\n        /* \"#utility.yul\":4059:4077   */\n      tag_128\n      tag_74\n      jump\t// in\n    tag_128:\n        /* \"#utility.yul\":4043:4079   */\n    tag_127:\n        /* \"#utility.yul\":3895:4086   */\n      swap3\n      swap2\n      pop\n      pop\n      jump\t// out\n        /* \"#utility.yul\":4092:4261   */\n    tag_75:\n        /* \"#utility.yul\":4232:4253   */\n      0x596f7520617265206e6f7420616c6c6f77656400000000000000000000000000\n        /* \"#utility.yul\":4228:4229   */\n      0x00\n        /* \"#utility.yul\":4220:4226   */\n      dup3\n        /* \"#utility.yul\":4216:4230   */\n      add\n        /* \"#utility.yul\":4209:4254   */\n      mstore\n        /* \"#utility.yul\":4092:4261   */\n      pop\n      jump\t// out\n        /* \"#utility.yul\":4267:4633   */\n    tag_76:\n        /* \"#utility.yul\":4409:4412   */\n      0x00\n        /* \"#utility.yul\":4430:4497   */\n      tag_131\n        /* \"#utility.yul\":4494:4496   */\n      0x13\n        /* \"#utility.yul\":4489:4492   */\n      dup4\n        /* \"#utility.yul\":4430:4497   */\n      tag_71\n      jump\t// in\n    tag_131:\n        /* \"#utility.yul\":4423:4497   */\n      swap2\n      pop\n        /* \"#utility.yul\":4506:4599   */\n      tag_132\n        /* \"#utility.yul\":4595:4598   */\n      dup3\n        /* \"#utility.yul\":4506:4599   */\n      tag_75\n      jump\t// in\n    tag_132:\n        /* \"#utility.yul\":4624:4626   */\n      0x20\n        /* \"#utility.yul\":4619:4622   */\n      dup3\n        /* \"#utility.yul\":4615:4627   */\n      add\n        /* \"#utility.yul\":4608:4627   */\n      swap1\n      pop\n        /* \"#utility.yul\":4267:4633   */\n      swap2\n      swap1\n      pop\n      jump\t// out\n        /* \"#utility.yul\":4639:5058   */\n    tag_38:\n        /* \"#utility.yul\":4805:4809   */\n      0x00\n        /* \"#utility.yul\":4843:4845   */\n      0x20\n        /* \"#utility.yul\":4832:4841   */\n      dup3\n        /* \"#utility.yul\":4828:4846   */\n      add\n        /* \"#utility.yul\":4820:4846   */\n      swap1\n      pop\n        /* \"#utility.yul\":4892:4901   */\n      dup2\n        /* \"#utility.yul\":4886:4890   */\n      dup2\n        /* \"#utility.yul\":4882:4902   */\n      sub\n        /* \"#utility.yul\":4878:4879   */\n      0x00\n        /* \"#utility.yul\":4867:4876   */\n      dup4\n        /* \"#utility.yul\":4863:4880   */\n      add\n        /* \"#utility.yul\":4856:4903   */\n      mstore\n        /* \"#utility.yul\":4920:5051   */\n      tag_134\n        /* \"#utility.yul\":5046:5050   */\n      dup2\n        /* \"#utility.yul\":4920:5051   */\n      tag_76\n      jump\t// in\n    tag_134:\n        /* \"#utility.yul\":4912:5051   */\n      swap1\n      pop\n        /* \"#utility.yul\":4639:5058   */\n      swap2\n      swap1\n      pop\n      jump\t// out\n        /* \"#utility.yul\":5064:5297   */\n    tag_41:\n        /* \"#utility.yul\":5103:5106   */\n      0x00\n        /* \"#utility.yul\":5126:5150   */\n      tag_136\n        /* \"#utility.yul\":5144:5149   */\n      dup3\n        /* \"#utility.yul\":5126:5150   */\n      tag_67\n      jump\t// in\n    tag_136:\n        /* \"#utility.yul\":5117:5150   */\n      swap2\n      pop\n        /* \"#utility.yul\":5172:5238   */\n      0xffffffffffffffffffffffffffffffffffffffffffffffffffffffffffffffff\n        /* \"#utility.yul\":5165:5170   */\n      dup3\n        /* \"#utility.yul\":5162:5239   */\n      sub\n        /* \"#utility.yul\":5159:5262   */\n      tag_137\n      jumpi\n        /* \"#utility.yul\":5242:5260   */\n      tag_138\n      tag_74\n      jump\t// in\n    tag_138:\n        /* \"#utility.yul\":5159:5262   */\n    tag_137:\n        /* \"#utility.yul\":5289:5290   */\n      0x01\n        /* \"#utility.yul\":5282:5287   */\n      dup3\n        /* \"#utility.yul\":5278:5291   */\n      add\n        /* \"#utility.yul\":5271:5291   */\n      swap1\n      pop\n        /* \"#utility.yul\":5064:5297   */\n      swap2\n      swap1\n      pop\n      jump\t// out\n        /* \"#utility.yul\":5303:5713   */\n    tag_44:\n        /* \"#utility.yul\":5343:5350   */\n      0x00\n        /* \"#utility.yul\":5366:5386   */\n      tag_140\n        /* \"#utility.yul\":5384:5385   */\n      dup3\n        /* \"#utility.yul\":5366:5386   */\n      tag_67\n      jump\t// in\n    tag_140:\n        /* \"#utility.yul\":5361:5386   */\n      swap2\n      pop\n        /* \"#utility.yul\":5400:5420   */\n      tag_141\n        /* \"#utility.yul\":5418:5419   */\n      dup4\n        /* \"#utility.yul\":5400:5420   */\n      tag_67\n      jump\t// in\n    tag_141:\n        /* \"#utility.yul\":5395:5420   */\n      swap3\n      pop\n        /* \"#utility.yul\":5455:5456   */\n      dup3\n        /* \"#utility.yul\":5452:5453   */\n      dup3\n        /* \"#utility.yul\":5448:5457   */\n      mul\n        /* \"#utility.yul\":5477:5507   */\n      tag_142\n        /* \"#utility.yul\":5495:5506   */\n      dup2\n        /* \"#utility.yul\":5477:5507   */\n      tag_67\n      jump\t// in\n    tag_142:\n        /* \"#utility.yul\":5466:5507   */\n      swap2\n      pop\n        /* \"#utility.yul\":5656:5657   */\n      dup3\n        /* \"#utility.yul\":5647:5654   */\n      dup3\n        /* \"#utility.yul\":5643:5658   */\n      div\n        /* \"#utility.yul\":5640:5641   */\n      dup5\n        /* \"#utility.yul\":5637:5659   */\n      eq\n        /* \"#utility.yul\":5617:5618   */\n      dup4\n        /* \"#utility.yul\":5610:5619   */\n      iszero\n        /* \"#utility.yul\":5590:5673   */\n      or\n        /* \"#utility.yul\":5567:5706   */\n      tag_143\n      jumpi\n        /* \"#utility.yul\":5686:5704   */\n      tag_144\n      tag_74\n      jump\t// in\n    tag_144:\n        /* \"#utility.yul\":5567:5706   */\n    tag_143:\n        /* \"#utility.yul\":5351:5713   */\n      pop\n        /* \"#utility.yul\":5303:5713   */\n      swap3\n      swap2\n      pop\n      pop\n      jump\t// out\n        /* \"#utility.yul\":5719:5899   */\n    tag_77:\n        /* \"#utility.yul\":5767:5844   */\n      0x4e487b7100000000000000000000000000000000000000000000000000000000\n        /* \"#utility.yul\":5764:5765   */\n      0x00\n        /* \"#utility.yul\":5757:5845   */\n      mstore\n        /* \"#utility.yul\":5864:5868   */\n      0x12\n        /* \"#utility.yul\":5861:5862   */\n      0x04\n        /* \"#utility.yul\":5854:5869   */\n      mstore\n        /* \"#utility.yul\":5888:5892   */\n      0x24\n        /* \"#utility.yul\":5885:5886   */\n      0x00\n        /* \"#utility.yul\":5878:5893   */\n      revert\n        /* \"#utility.yul\":5905:6090   */\n    tag_46:\n        /* \"#utility.yul\":5945:5946   */\n      0x00\n        /* \"#utility.yul\":5962:5982   */\n      tag_147\n        /* \"#utility.yul\":5980:5981   */\n      dup3\n        /* \"#utility.yul\":5962:5982   */\n      tag_67\n      jump\t// in\n    tag_147:\n        /* \"#utility.yul\":5957:5982   */\n      swap2\n      pop\n        /* \"#utility.yul\":5996:6016   */\n      tag_148\n        /* \"#utility.yul\":6014:6015   */\n      dup4\n        /* \"#utility.yul\":5996:6016   */\n      tag_67\n      jump\t// in\n    tag_148:\n        /* \"#utility.yul\":5991:6016   */\n      swap3\n      pop\n        /* \"#utility.yul\":6035:6036   */\n      dup3\n        /* \"#utility.yul\":6025:6060   */\n      tag_149\n      jumpi\n        /* \"#utility.yul\":6040:6058   */\n      tag_150\n      tag_77\n      jump\t// in\n    tag_150:\n        /* \"#utility.yul\":6025:6060   */\n    tag_149:\n        /* \"#utility.yul\":6082:6083   */\n      dup3\n        /* \"#utility.yul\":6079:6080   */\n      dup3\n        /* \"#utility.yul\":6075:6084   */\n      div\n        /* \"#utility.yul\":6070:6084   */\n      swap1\n      pop\n        /* \"#utility.yul\":5905:6090   */\n      swap3\n      swap2\n      pop\n      pop\n      jump\t// out\n        /* \"#utility.yul\":6096:6263   */\n    tag_78:\n        /* \"#utility.yul\":6236:6255   */\n      0x6e6f7420656e6f75676820746f6b656e73000000000000000000000000000000\n        /* \"#utility.yul\":6232:6233   */\n      0x00\n        /* \"#utility.yul\":6224:6230   */\n      dup3\n        /* \"#utility.yul\":6220:6234   */\n      add\n        /* \"#utility.yul\":6213:6256   */\n      mstore\n        /* \"#utility.yul\":6096:6263   */\n      pop\n      jump\t// out\n        /* \"#utility.yul\":6269:6635   */\n    tag_79:\n        /* \"#utility.yul\":6411:6414   */\n      0x00\n        /* \"#utility.yul\":6432:6499   */\n      tag_153\n        /* \"#utility.yul\":6496:6498   */\n      0x11\n        /* \"#utility.yul\":6491:6494   */\n      dup4\n        /* \"#utility.yul\":6432:6499   */\n      tag_71\n      jump\t// in\n    tag_153:\n        /* \"#utility.yul\":6425:6499   */\n      swap2\n      pop\n        /* \"#utility.yul\":6508:6601   */\n      tag_154\n        /* \"#utility.yul\":6597:6600   */\n      dup3\n        /* \"#utility.yul\":6508:6601   */\n      tag_78\n      jump\t// in\n    tag_154:\n        /* \"#utility.yul\":6626:6628   */\n      0x20\n        /* \"#utility.yul\":6621:6624   */\n      dup3\n        /* \"#utility.yul\":6617:6629   */\n      add\n        /* \"#utility.yul\":6610:6629   */\n      swap1\n      pop\n        /* \"#utility.yul\":6269:6635   */\n      swap2\n      swap1\n      pop\n      jump\t// out\n        /* \"#utility.yul\":6641:7060   */\n    tag_49:\n        /* \"#utility.yul\":6807:6811   */\n      0x00\n        /* \"#utility.yul\":6845:6847   */\n      0x20\n        /* \"#utility.yul\":6834:6843   */\n      dup3\n        /* \"#utility.yul\":6830:6848   */\n      add\n        /* \"#utility.yul\":6822:6848   */\n      swap1\n      pop\n        /* \"#utility.yul\":6894:6903   */\n      dup2\n        /* \"#utility.yul\":6888:6892   */\n      dup2\n        /* \"#utility.yul\":6884:6904   */\n      sub\n        /* \"#utility.yul\":6880:6881   */\n      0x00\n        /* \"#utility.yul\":6869:6878   */\n      dup4\n        /* \"#utility.yul\":6865:6882   */\n      add\n        /* \"#utility.yul\":6858:6905   */\n      mstore\n        /* \"#utility.yul\":6922:7053   */\n      tag_156\n        /* \"#utility.yul\":7048:7052   */\n      dup2\n        /* \"#utility.yul\":6922:7053   */\n      tag_79\n      jump\t// in\n    tag_156:\n        /* \"#utility.yul\":6914:7053   */\n      swap1\n      pop\n        /* \"#utility.yul\":6641:7060   */\n      swap2\n      swap1\n      pop\n      jump\t// out\n        /* \"#utility.yul\":7066:7237   */\n    tag_59:\n        /* \"#utility.yul\":7105:7108   */\n      0x00\n        /* \"#utility.yul\":7128:7152   */\n      tag_158\n        /* \"#utility.yul\":7146:7151   */\n      dup3\n        /* \"#utility.yul\":7128:7152   */\n      tag_67\n      jump\t// in\n    tag_158:\n        /* \"#utility.yul\":7119:7152   */\n      swap2\n      pop\n        /* \"#utility.yul\":7174:7178   */\n      0x00\n        /* \"#utility.yul\":7167:7172   */\n      dup3\n        /* \"#utility.yul\":7164:7179   */\n      sub\n        /* \"#utility.yul\":7161:7202   */\n      tag_159\n      jumpi\n        /* \"#utility.yul\":7182:7200   */\n      tag_160\n      tag_74\n      jump\t// in\n    tag_160:\n        /* \"#utility.yul\":7161:7202   */\n    tag_159:\n        /* \"#utility.yul\":7229:7230   */\n      0x01\n        /* \"#utility.yul\":7222:7227   */\n      dup3\n        /* \"#utility.yul\":7218:7231   */\n      sub\n        /* \"#utility.yul\":7211:7231   */\n      swap1\n      pop\n        /* \"#utility.yul\":7066:7237   */\n      swap2\n      swap1\n      pop\n      jump\t// out\n\n    auxdata: 0xa2646970667358221220c52ebf99dc460097f7c777d3b5719ab08ac911ddce8cb9aee960da271ba2c5bf64736f6c634300081a0033\n}\n",
				"bytecode": {
					"linkReferences": {},
					"object": "6080604052670de0b6b3a7640000600255348015601a575f80fd5b50335f806101000a81548173ffffffffffffffffffffffffffffffffffffffff021916908373ffffffffffffffffffffffffffffffffffffffff160217905550606460015f3373ffffffffffffffffffffffffffffffffffffffff1673ffffffffffffffffffffffffffffffffffffffff1681526020019081526020015f2081905550610a00806100aa5f395ff3fe608060405260043610610049575f3560e01c8063412664ae1461004d578063754fc38c14610075578063a95c4d621461008b578063eedc966a14610095578063faa0a264146100d1575b5f80fd5b348015610058575f80fd5b50610073600480360381019061006e9190610652565b6100e7565b005b348015610080575f80fd5b50610089610211565b005b610093610312565b005b3480156100a0575f80fd5b506100bb60048036038101906100b69190610690565b6104ab565b6040516100c891906106ca565b60405180910390f35b3480156100dc575f80fd5b506100e56104c0565b005b8060015f3373ffffffffffffffffffffffffffffffffffffffff1673ffffffffffffffffffffffffffffffffffffffff1681526020019081526020015f20541015610167576040517f08c379a000000000000000000000000000000000000000000000000000000000815260040161015e9061073d565b60405180910390fd5b8060015f3373ffffffffffffffffffffffffffffffffffffffff1673ffffffffffffffffffffffffffffffffffffffff1681526020019081526020015f205f8282546101b39190610788565b925050819055508060015f8473ffffffffffffffffffffffffffffffffffffffff1673ffffffffffffffffffffffffffffffffffffffff1681526020019081526020015f205f82825461020691906107bb565b925050819055505050565b5f8054906101000a900473ffffffffffffffffffffffffffffffffffffffff1673ffffffffffffffffffffffffffffffffffffffff163373ffffffffffffffffffffffffffffffffffffffff161461029e576040517f08c379a000000000000000000000000000000000000000000000000000000000815260040161029590610838565b60405180910390fd5b60015f805f9054906101000a900473ffffffffffffffffffffffffffffffffffffffff1673ffffffffffffffffffffffffffffffffffffffff1673ffffffffffffffffffffffffffffffffffffffff1681526020019081526020015f205f81548092919061030b90610856565b9190505550565b5f3460025460015f805f9054906101000a900473ffffffffffffffffffffffffffffffffffffffff1673ffffffffffffffffffffffffffffffffffffffff1673ffffffffffffffffffffffffffffffffffffffff1681526020019081526020015f205461037f919061089d565b610389919061090b565b116103c9576040517f08c379a00000000000000000000000000000000000000000000000000000000081526004016103c090610985565b60405180910390fd5b600254346103d7919061090b565b60015f805f9054906101000a900473ffffffffffffffffffffffffffffffffffffffff1673ffffffffffffffffffffffffffffffffffffffff1673ffffffffffffffffffffffffffffffffffffffff1681526020019081526020015f205f8282546104429190610788565b9250508190555060025434610457919061090b565b60015f3373ffffffffffffffffffffffffffffffffffffffff1673ffffffffffffffffffffffffffffffffffffffff1681526020019081526020015f205f8282546104a291906107bb565b92505081905550565b6001602052805f5260405f205f915090505481565b5f8054906101000a900473ffffffffffffffffffffffffffffffffffffffff1673ffffffffffffffffffffffffffffffffffffffff163373ffffffffffffffffffffffffffffffffffffffff161461054d576040517f08c379a000000000000000000000000000000000000000000000000000000000815260040161054490610838565b60405180910390fd5b60015f805f9054906101000a900473ffffffffffffffffffffffffffffffffffffffff1673ffffffffffffffffffffffffffffffffffffffff1673ffffffffffffffffffffffffffffffffffffffff1681526020019081526020015f205f8154809291906105ba906109a3565b9190505550565b5f80fd5b5f73ffffffffffffffffffffffffffffffffffffffff82169050919050565b5f6105ee826105c5565b9050919050565b6105fe816105e4565b8114610608575f80fd5b50565b5f81359050610619816105f5565b92915050565b5f819050919050565b6106318161061f565b811461063b575f80fd5b50565b5f8135905061064c81610628565b92915050565b5f8060408385031215610668576106676105c1565b5b5f6106758582860161060b565b92505060206106868582860161063e565b9150509250929050565b5f602082840312156106a5576106a46105c1565b5b5f6106b28482850161060b565b91505092915050565b6106c48161061f565b82525050565b5f6020820190506106dd5f8301846106bb565b92915050565b5f82825260208201905092915050565b7f4e6f7420656e6f75676820746f6b656e730000000000000000000000000000005f82015250565b5f6107276011836106e3565b9150610732826106f3565b602082019050919050565b5f6020820190508181035f8301526107548161071b565b9050919050565b7f4e487b71000000000000000000000000000000000000000000000000000000005f52601160045260245ffd5b5f6107928261061f565b915061079d8361061f565b92508282039050818111156107b5576107b461075b565b5b92915050565b5f6107c58261061f565b91506107d08361061f565b92508282019050808211156107e8576107e761075b565b5b92915050565b7f596f7520617265206e6f7420616c6c6f776564000000000000000000000000005f82015250565b5f6108226013836106e3565b915061082d826107ee565b602082019050919050565b5f6020820190508181035f83015261084f81610816565b9050919050565b5f6108608261061f565b91507fffffffffffffffffffffffffffffffffffffffffffffffffffffffffffffffff82036108925761089161075b565b5b600182019050919050565b5f6108a78261061f565b91506108b28361061f565b92508282026108c08161061f565b915082820484148315176108d7576108d661075b565b5b5092915050565b7f4e487b71000000000000000000000000000000000000000000000000000000005f52601260045260245ffd5b5f6109158261061f565b91506109208361061f565b9250826109305761092f6108de565b5b828204905092915050565b7f6e6f7420656e6f75676820746f6b656e730000000000000000000000000000005f82015250565b5f61096f6011836106e3565b915061097a8261093b565b602082019050919050565b5f6020820190508181035f83015261099c81610963565b9050919050565b5f6109ad8261061f565b91505f82036109bf576109be61075b565b5b60018203905091905056fea2646970667358221220c52ebf99dc460097f7c777d3b5719ab08ac911ddce8cb9aee960da271ba2c5bf64736f6c634300081a0033",
					"opcodes": "PUSH1 0x80 PUSH1 0x40 MSTORE PUSH8 0xDE0B6B3A7640000 PUSH1 0x2 SSTORE CALLVALUE DUP1 ISZERO PUSH1 0x1A JUMPI PUSH0 DUP1 REVERT JUMPDEST POP CALLER PUSH0 DUP1 PUSH2 0x100 EXP DUP2 SLOAD DUP2 PUSH20 0xFFFFFFFFFFFFFFFFFFFFFFFFFFFFFFFFFFFFFFFF MUL NOT AND SWAP1 DUP4 PUSH20 0xFFFFFFFFFFFFFFFFFFFFFFFFFFFFFFFFFFFFFFFF AND MUL OR SWAP1 SSTORE POP PUSH1 0x64 PUSH1 0x1 PUSH0 CALLER PUSH20 0xFFFFFFFFFFFFFFFFFFFFFFFFFFFFFFFFFFFFFFFF AND PUSH20 0xFFFFFFFFFFFFFFFFFFFFFFFFFFFFFFFFFFFFFFFF AND DUP2 MSTORE PUSH1 0x20 ADD SWAP1 DUP2 MSTORE PUSH1 0x20 ADD PUSH0 KECCAK256 DUP2 SWAP1 SSTORE POP PUSH2 0xA00 DUP1 PUSH2 0xAA PUSH0 CODECOPY PUSH0 RETURN INVALID PUSH1 0x80 PUSH1 0x40 MSTORE PUSH1 0x4 CALLDATASIZE LT PUSH2 0x49 JUMPI PUSH0 CALLDATALOAD PUSH1 0xE0 SHR DUP1 PUSH4 0x412664AE EQ PUSH2 0x4D JUMPI DUP1 PUSH4 0x754FC38C EQ PUSH2 0x75 JUMPI DUP1 PUSH4 0xA95C4D62 EQ PUSH2 0x8B JUMPI DUP1 PUSH4 0xEEDC966A EQ PUSH2 0x95 JUMPI DUP1 PUSH4 0xFAA0A264 EQ PUSH2 0xD1 JUMPI JUMPDEST PUSH0 DUP1 REVERT JUMPDEST CALLVALUE DUP1 ISZERO PUSH2 0x58 JUMPI PUSH0 DUP1 REVERT JUMPDEST POP PUSH2 0x73 PUSH1 0x4 DUP1 CALLDATASIZE SUB DUP2 ADD SWAP1 PUSH2 0x6E SWAP2 SWAP1 PUSH2 0x652 JUMP JUMPDEST PUSH2 0xE7 JUMP JUMPDEST STOP JUMPDEST CALLVALUE DUP1 ISZERO PUSH2 0x80 JUMPI PUSH0 DUP1 REVERT JUMPDEST POP PUSH2 0x89 PUSH2 0x211 JUMP JUMPDEST STOP JUMPDEST PUSH2 0x93 PUSH2 0x312 JUMP JUMPDEST STOP JUMPDEST CALLVALUE DUP1 ISZERO PUSH2 0xA0 JUMPI PUSH0 DUP1 REVERT JUMPDEST POP PUSH2 0xBB PUSH1 0x4 DUP1 CALLDATASIZE SUB DUP2 ADD SWAP1 PUSH2 0xB6 SWAP2 SWAP1 PUSH2 0x690 JUMP JUMPDEST PUSH2 0x4AB JUMP JUMPDEST PUSH1 0x40 MLOAD PUSH2 0xC8 SWAP2 SWAP1 PUSH2 0x6CA JUMP JUMPDEST PUSH1 0x40 MLOAD DUP1 SWAP2 SUB SWAP1 RETURN JUMPDEST CALLVALUE DUP1 ISZERO PUSH2 0xDC JUMPI PUSH0 DUP1 REVERT JUMPDEST POP PUSH2 0xE5 PUSH2 0x4C0 JUMP JUMPDEST STOP JUMPDEST DUP1 PUSH1 0x1 PUSH0 CALLER PUSH20 0xFFFFFFFFFFFFFFFFFFFFFFFFFFFFFFFFFFFFFFFF AND PUSH20 0xFFFFFFFFFFFFFFFFFFFFFFFFFFFFFFFFFFFFFFFF AND DUP2 MSTORE PUSH1 0x20 ADD SWAP1 DUP2 MSTORE PUSH1 0x20 ADD PUSH0 KECCAK256 SLOAD LT ISZERO PUSH2 0x167 JUMPI PUSH1 0x40 MLOAD PUSH32 0x8C379A000000000000000000000000000000000000000000000000000000000 DUP2 MSTORE PUSH1 0x4 ADD PUSH2 0x15E SWAP1 PUSH2 0x73D JUMP JUMPDEST PUSH1 0x40 MLOAD DUP1 SWAP2 SUB SWAP1 REVERT JUMPDEST DUP1 PUSH1 0x1 PUSH0 CALLER PUSH20 0xFFFFFFFFFFFFFFFFFFFFFFFFFFFFFFFFFFFFFFFF AND PUSH20 0xFFFFFFFFFFFFFFFFFFFFFFFFFFFFFFFFFFFFFFFF AND DUP2 MSTORE PUSH1 0x20 ADD SWAP1 DUP2 MSTORE PUSH1 0x20 ADD PUSH0 KECCAK256 PUSH0 DUP3 DUP3 SLOAD PUSH2 0x1B3 SWAP2 SWAP1 PUSH2 0x788 JUMP JUMPDEST SWAP3 POP POP DUP2 SWAP1 SSTORE POP DUP1 PUSH1 0x1 PUSH0 DUP5 PUSH20 0xFFFFFFFFFFFFFFFFFFFFFFFFFFFFFFFFFFFFFFFF AND PUSH20 0xFFFFFFFFFFFFFFFFFFFFFFFFFFFFFFFFFFFFFFFF AND DUP2 MSTORE PUSH1 0x20 ADD SWAP1 DUP2 MSTORE PUSH1 0x20 ADD PUSH0 KECCAK256 PUSH0 DUP3 DUP3 SLOAD PUSH2 0x206 SWAP2 SWAP1 PUSH2 0x7BB JUMP JUMPDEST SWAP3 POP POP DUP2 SWAP1 SSTORE POP POP POP JUMP JUMPDEST PUSH0 DUP1 SLOAD SWAP1 PUSH2 0x100 EXP SWAP1 DIV PUSH20 0xFFFFFFFFFFFFFFFFFFFFFFFFFFFFFFFFFFFFFFFF AND PUSH20 0xFFFFFFFFFFFFFFFFFFFFFFFFFFFFFFFFFFFFFFFF AND CALLER PUSH20 0xFFFFFFFFFFFFFFFFFFFFFFFFFFFFFFFFFFFFFFFF AND EQ PUSH2 0x29E JUMPI PUSH1 0x40 MLOAD PUSH32 0x8C379A000000000000000000000000000000000000000000000000000000000 DUP2 MSTORE PUSH1 0x4 ADD PUSH2 0x295 SWAP1 PUSH2 0x838 JUMP JUMPDEST PUSH1 0x40 MLOAD DUP1 SWAP2 SUB SWAP1 REVERT JUMPDEST PUSH1 0x1 PUSH0 DUP1 PUSH0 SWAP1 SLOAD SWAP1 PUSH2 0x100 EXP SWAP1 DIV PUSH20 0xFFFFFFFFFFFFFFFFFFFFFFFFFFFFFFFFFFFFFFFF AND PUSH20 0xFFFFFFFFFFFFFFFFFFFFFFFFFFFFFFFFFFFFFFFF AND PUSH20 0xFFFFFFFFFFFFFFFFFFFFFFFFFFFFFFFFFFFFFFFF AND DUP2 MSTORE PUSH1 0x20 ADD SWAP1 DUP2 MSTORE PUSH1 0x20 ADD PUSH0 KECCAK256 PUSH0 DUP2 SLOAD DUP1 SWAP3 SWAP2 SWAP1 PUSH2 0x30B SWAP1 PUSH2 0x856 JUMP JUMPDEST SWAP2 SWAP1 POP SSTORE POP JUMP JUMPDEST PUSH0 CALLVALUE PUSH1 0x2 SLOAD PUSH1 0x1 PUSH0 DUP1 PUSH0 SWAP1 SLOAD SWAP1 PUSH2 0x100 EXP SWAP1 DIV PUSH20 0xFFFFFFFFFFFFFFFFFFFFFFFFFFFFFFFFFFFFFFFF AND PUSH20 0xFFFFFFFFFFFFFFFFFFFFFFFFFFFFFFFFFFFFFFFF AND PUSH20 0xFFFFFFFFFFFFFFFFFFFFFFFFFFFFFFFFFFFFFFFF AND DUP2 MSTORE PUSH1 0x20 ADD SWAP1 DUP2 MSTORE PUSH1 0x20 ADD PUSH0 KECCAK256 SLOAD PUSH2 0x37F SWAP2 SWAP1 PUSH2 0x89D JUMP JUMPDEST PUSH2 0x389 SWAP2 SWAP1 PUSH2 0x90B JUMP JUMPDEST GT PUSH2 0x3C9 JUMPI PUSH1 0x40 MLOAD PUSH32 0x8C379A000000000000000000000000000000000000000000000000000000000 DUP2 MSTORE PUSH1 0x4 ADD PUSH2 0x3C0 SWAP1 PUSH2 0x985 JUMP JUMPDEST PUSH1 0x40 MLOAD DUP1 SWAP2 SUB SWAP1 REVERT JUMPDEST PUSH1 0x2 SLOAD CALLVALUE PUSH2 0x3D7 SWAP2 SWAP1 PUSH2 0x90B JUMP JUMPDEST PUSH1 0x1 PUSH0 DUP1 PUSH0 SWAP1 SLOAD SWAP1 PUSH2 0x100 EXP SWAP1 DIV PUSH20 0xFFFFFFFFFFFFFFFFFFFFFFFFFFFFFFFFFFFFFFFF AND PUSH20 0xFFFFFFFFFFFFFFFFFFFFFFFFFFFFFFFFFFFFFFFF AND PUSH20 0xFFFFFFFFFFFFFFFFFFFFFFFFFFFFFFFFFFFFFFFF AND DUP2 MSTORE PUSH1 0x20 ADD SWAP1 DUP2 MSTORE PUSH1 0x20 ADD PUSH0 KECCAK256 PUSH0 DUP3 DUP3 SLOAD PUSH2 0x442 SWAP2 SWAP1 PUSH2 0x788 JUMP JUMPDEST SWAP3 POP POP DUP2 SWAP1 SSTORE POP PUSH1 0x2 SLOAD CALLVALUE PUSH2 0x457 SWAP2 SWAP1 PUSH2 0x90B JUMP JUMPDEST PUSH1 0x1 PUSH0 CALLER PUSH20 0xFFFFFFFFFFFFFFFFFFFFFFFFFFFFFFFFFFFFFFFF AND PUSH20 0xFFFFFFFFFFFFFFFFFFFFFFFFFFFFFFFFFFFFFFFF AND DUP2 MSTORE PUSH1 0x20 ADD SWAP1 DUP2 MSTORE PUSH1 0x20 ADD PUSH0 KECCAK256 PUSH0 DUP3 DUP3 SLOAD PUSH2 0x4A2 SWAP2 SWAP1 PUSH2 0x7BB JUMP JUMPDEST SWAP3 POP POP DUP2 SWAP1 SSTORE POP JUMP JUMPDEST PUSH1 0x1 PUSH1 0x20 MSTORE DUP1 PUSH0 MSTORE PUSH1 0x40 PUSH0 KECCAK256 PUSH0 SWAP2 POP SWAP1 POP SLOAD DUP2 JUMP JUMPDEST PUSH0 DUP1 SLOAD SWAP1 PUSH2 0x100 EXP SWAP1 DIV PUSH20 0xFFFFFFFFFFFFFFFFFFFFFFFFFFFFFFFFFFFFFFFF AND PUSH20 0xFFFFFFFFFFFFFFFFFFFFFFFFFFFFFFFFFFFFFFFF AND CALLER PUSH20 0xFFFFFFFFFFFFFFFFFFFFFFFFFFFFFFFFFFFFFFFF AND EQ PUSH2 0x54D JUMPI PUSH1 0x40 MLOAD PUSH32 0x8C379A000000000000000000000000000000000000000000000000000000000 DUP2 MSTORE PUSH1 0x4 ADD PUSH2 0x544 SWAP1 PUSH2 0x838 JUMP JUMPDEST PUSH1 0x40 MLOAD DUP1 SWAP2 SUB SWAP1 REVERT JUMPDEST PUSH1 0x1 PUSH0 DUP1 PUSH0 SWAP1 SLOAD SWAP1 PUSH2 0x100 EXP SWAP1 DIV PUSH20 0xFFFFFFFFFFFFFFFFFFFFFFFFFFFFFFFFFFFFFFFF AND PUSH20 0xFFFFFFFFFFFFFFFFFFFFFFFFFFFFFFFFFFFFFFFF AND PUSH20 0xFFFFFFFFFFFFFFFFFFFFFFFFFFFFFFFFFFFFFFFF AND DUP2 MSTORE PUSH1 0x20 ADD SWAP1 DUP2 MSTORE PUSH1 0x20 ADD PUSH0 KECCAK256 PUSH0 DUP2 SLOAD DUP1 SWAP3 SWAP2 SWAP1 PUSH2 0x5BA SWAP1 PUSH2 0x9A3 JUMP JUMPDEST SWAP2 SWAP1 POP SSTORE POP JUMP JUMPDEST PUSH0 DUP1 REVERT JUMPDEST PUSH0 PUSH20 0xFFFFFFFFFFFFFFFFFFFFFFFFFFFFFFFFFFFFFFFF DUP3 AND SWAP1 POP SWAP2 SWAP1 POP JUMP JUMPDEST PUSH0 PUSH2 0x5EE DUP3 PUSH2 0x5C5 JUMP JUMPDEST SWAP1 POP SWAP2 SWAP1 POP JUMP JUMPDEST PUSH2 0x5FE DUP2 PUSH2 0x5E4 JUMP JUMPDEST DUP2 EQ PUSH2 0x608 JUMPI PUSH0 DUP1 REVERT JUMPDEST POP JUMP JUMPDEST PUSH0 DUP2 CALLDATALOAD SWAP1 POP PUSH2 0x619 DUP2 PUSH2 0x5F5 JUMP JUMPDEST SWAP3 SWAP2 POP POP JUMP JUMPDEST PUSH0 DUP2 SWAP1 POP SWAP2 SWAP1 POP JUMP JUMPDEST PUSH2 0x631 DUP2 PUSH2 0x61F JUMP JUMPDEST DUP2 EQ PUSH2 0x63B JUMPI PUSH0 DUP1 REVERT JUMPDEST POP JUMP JUMPDEST PUSH0 DUP2 CALLDATALOAD SWAP1 POP PUSH2 0x64C DUP2 PUSH2 0x628 JUMP JUMPDEST SWAP3 SWAP2 POP POP JUMP JUMPDEST PUSH0 DUP1 PUSH1 0x40 DUP4 DUP6 SUB SLT ISZERO PUSH2 0x668 JUMPI PUSH2 0x667 PUSH2 0x5C1 JUMP JUMPDEST JUMPDEST PUSH0 PUSH2 0x675 DUP6 DUP3 DUP7 ADD PUSH2 0x60B JUMP JUMPDEST SWAP3 POP POP PUSH1 0x20 PUSH2 0x686 DUP6 DUP3 DUP7 ADD PUSH2 0x63E JUMP JUMPDEST SWAP2 POP POP SWAP3 POP SWAP3 SWAP1 POP JUMP JUMPDEST PUSH0 PUSH1 0x20 DUP3 DUP5 SUB SLT ISZERO PUSH2 0x6A5 JUMPI PUSH2 0x6A4 PUSH2 0x5C1 JUMP JUMPDEST JUMPDEST PUSH0 PUSH2 0x6B2 DUP5 DUP3 DUP6 ADD PUSH2 0x60B JUMP JUMPDEST SWAP2 POP POP SWAP3 SWAP2 POP POP JUMP JUMPDEST PUSH2 0x6C4 DUP2 PUSH2 0x61F JUMP JUMPDEST DUP3 MSTORE POP POP JUMP JUMPDEST PUSH0 PUSH1 0x20 DUP3 ADD SWAP1 POP PUSH2 0x6DD PUSH0 DUP4 ADD DUP5 PUSH2 0x6BB JUMP JUMPDEST SWAP3 SWAP2 POP POP JUMP JUMPDEST PUSH0 DUP3 DUP3 MSTORE PUSH1 0x20 DUP3 ADD SWAP1 POP SWAP3 SWAP2 POP POP JUMP JUMPDEST PUSH32 0x4E6F7420656E6F75676820746F6B656E73000000000000000000000000000000 PUSH0 DUP3 ADD MSTORE POP JUMP JUMPDEST PUSH0 PUSH2 0x727 PUSH1 0x11 DUP4 PUSH2 0x6E3 JUMP JUMPDEST SWAP2 POP PUSH2 0x732 DUP3 PUSH2 0x6F3 JUMP JUMPDEST PUSH1 0x20 DUP3 ADD SWAP1 POP SWAP2 SWAP1 POP JUMP JUMPDEST PUSH0 PUSH1 0x20 DUP3 ADD SWAP1 POP DUP2 DUP2 SUB PUSH0 DUP4 ADD MSTORE PUSH2 0x754 DUP2 PUSH2 0x71B JUMP JUMPDEST SWAP1 POP SWAP2 SWAP1 POP JUMP JUMPDEST PUSH32 0x4E487B7100000000000000000000000000000000000000000000000000000000 PUSH0 MSTORE PUSH1 0x11 PUSH1 0x4 MSTORE PUSH1 0x24 PUSH0 REVERT JUMPDEST PUSH0 PUSH2 0x792 DUP3 PUSH2 0x61F JUMP JUMPDEST SWAP2 POP PUSH2 0x79D DUP4 PUSH2 0x61F JUMP JUMPDEST SWAP3 POP DUP3 DUP3 SUB SWAP1 POP DUP2 DUP2 GT ISZERO PUSH2 0x7B5 JUMPI PUSH2 0x7B4 PUSH2 0x75B JUMP JUMPDEST JUMPDEST SWAP3 SWAP2 POP POP JUMP JUMPDEST PUSH0 PUSH2 0x7C5 DUP3 PUSH2 0x61F JUMP JUMPDEST SWAP2 POP PUSH2 0x7D0 DUP4 PUSH2 0x61F JUMP JUMPDEST SWAP3 POP DUP3 DUP3 ADD SWAP1 POP DUP1 DUP3 GT ISZERO PUSH2 0x7E8 JUMPI PUSH2 0x7E7 PUSH2 0x75B JUMP JUMPDEST JUMPDEST SWAP3 SWAP2 POP POP JUMP JUMPDEST PUSH32 0x596F7520617265206E6F7420616C6C6F77656400000000000000000000000000 PUSH0 DUP3 ADD MSTORE POP JUMP JUMPDEST PUSH0 PUSH2 0x822 PUSH1 0x13 DUP4 PUSH2 0x6E3 JUMP JUMPDEST SWAP2 POP PUSH2 0x82D DUP3 PUSH2 0x7EE JUMP JUMPDEST PUSH1 0x20 DUP3 ADD SWAP1 POP SWAP2 SWAP1 POP JUMP JUMPDEST PUSH0 PUSH1 0x20 DUP3 ADD SWAP1 POP DUP2 DUP2 SUB PUSH0 DUP4 ADD MSTORE PUSH2 0x84F DUP2 PUSH2 0x816 JUMP JUMPDEST SWAP1 POP SWAP2 SWAP1 POP JUMP JUMPDEST PUSH0 PUSH2 0x860 DUP3 PUSH2 0x61F JUMP JUMPDEST SWAP2 POP PUSH32 0xFFFFFFFFFFFFFFFFFFFFFFFFFFFFFFFFFFFFFFFFFFFFFFFFFFFFFFFFFFFFFFFF DUP3 SUB PUSH2 0x892 JUMPI PUSH2 0x891 PUSH2 0x75B JUMP JUMPDEST JUMPDEST PUSH1 0x1 DUP3 ADD SWAP1 POP SWAP2 SWAP1 POP JUMP JUMPDEST PUSH0 PUSH2 0x8A7 DUP3 PUSH2 0x61F JUMP JUMPDEST SWAP2 POP PUSH2 0x8B2 DUP4 PUSH2 0x61F JUMP JUMPDEST SWAP3 POP DUP3 DUP3 MUL PUSH2 0x8C0 DUP2 PUSH2 0x61F JUMP JUMPDEST SWAP2 POP DUP3 DUP3 DIV DUP5 EQ DUP4 ISZERO OR PUSH2 0x8D7 JUMPI PUSH2 0x8D6 PUSH2 0x75B JUMP JUMPDEST JUMPDEST POP SWAP3 SWAP2 POP POP JUMP JUMPDEST PUSH32 0x4E487B7100000000000000000000000000000000000000000000000000000000 PUSH0 MSTORE PUSH1 0x12 PUSH1 0x4 MSTORE PUSH1 0x24 PUSH0 REVERT JUMPDEST PUSH0 PUSH2 0x915 DUP3 PUSH2 0x61F JUMP JUMPDEST SWAP2 POP PUSH2 0x920 DUP4 PUSH2 0x61F JUMP JUMPDEST SWAP3 POP DUP3 PUSH2 0x930 JUMPI PUSH2 0x92F PUSH2 0x8DE JUMP JUMPDEST JUMPDEST DUP3 DUP3 DIV SWAP1 POP SWAP3 SWAP2 POP POP JUMP JUMPDEST PUSH32 0x6E6F7420656E6F75676820746F6B656E73000000000000000000000000000000 PUSH0 DUP3 ADD MSTORE POP JUMP JUMPDEST PUSH0 PUSH2 0x96F PUSH1 0x11 DUP4 PUSH2 0x6E3 JUMP JUMPDEST SWAP2 POP PUSH2 0x97A DUP3 PUSH2 0x93B JUMP JUMPDEST PUSH1 0x20 DUP3 ADD SWAP1 POP SWAP2 SWAP1 POP JUMP JUMPDEST PUSH0 PUSH1 0x20 DUP3 ADD SWAP1 POP DUP2 DUP2 SUB PUSH0 DUP4 ADD MSTORE PUSH2 0x99C DUP2 PUSH2 0x963 JUMP JUMPDEST SWAP1 POP SWAP2 SWAP1 POP JUMP JUMPDEST PUSH0 PUSH2 0x9AD DUP3 PUSH2 0x61F JUMP JUMPDEST SWAP2 POP PUSH0 DUP3 SUB PUSH2 0x9BF JUMPI PUSH2 0x9BE PUSH2 0x75B JUMP JUMPDEST JUMPDEST PUSH1 0x1 DUP3 SUB SWAP1 POP SWAP2 SWAP1 POP JUMP INVALID LOG2 PUSH5 0x6970667358 0x22 SLT KECCAK256 0xC5 0x2E 0xBF SWAP10 0xDC CHAINID STOP SWAP8 0xF7 0xC7 PUSH24 0xD3B5719AB08AC911DDCE8CB9AEE960DA271BA2C5BF64736F PUSH13 0x634300081A0033000000000000 "
				},
				"gasEstimates": {
					"creation": {
						"codeDepositCost": "512000",
						"executionCost": "69113",
						"totalCost": "581113"
					},
					"external": {
						"burnToken()": "28951",
						"createNewToken()": "28886",
						"purchaseToken()": "infinite",
						"sendToken(address,uint256)": "infinite",
						"tokenBalance(address)": "2846"
					}
				},
				"methodIdentifiers": {
					"burnToken()": "faa0a264",
					"createNewToken()": "754fc38c",
					"purchaseToken()": "a95c4d62",
					"sendToken(address,uint256)": "412664ae",
					"tokenBalance(address)": "eedc966a"
				}
			},
			"storageLayout": {
				"storage": [
					{
						"astId": 118,
						"contract": "contracts/ExampleModifiers.sol:InheritanceModifierExample",
						"label": "owner",
						"offset": 0,
						"slot": "0",
						"type": "t_address"
					},
					{
						"astId": 8,
						"contract": "contracts/ExampleModifiers.sol:InheritanceModifierExample",
						"label": "tokenBalance",
						"offset": 0,
						"slot": "1",
						"type": "t_mapping(t_address,t_uint256)"
					},
					{
						"astId": 11,
						"contract": "contracts/ExampleModifiers.sol:InheritanceModifierExample",
						"label": "tokenPrice",
						"offset": 0,
						"slot": "2",
						"type": "t_uint256"
					}
				],
				"types": {
					"t_address": {
						"encoding": "inplace",
						"label": "address",
						"numberOfBytes": "20"
					},
					"t_mapping(t_address,t_uint256)": {
						"encoding": "mapping",
						"key": "t_address",
						"label": "mapping(address => uint256)",
						"numberOfBytes": "32",
						"value": "t_uint256"
					},
					"t_uint256": {
						"encoding": "inplace",
						"label": "uint256",
						"numberOfBytes": "32"
					}
				}
			},
			"userdoc": {
				"kind": "user",
				"methods": {},
				"version": 1
			}
		}
	}
}