{
	"data": {
		"bytecode": {
			"linkReferences": {},
			"object": "6080604052348015600e575f80fd5b50608a80601a5f395ff3fe608060405260043610601e575f3560e01c806385474728146028576024565b36602457005b5f80fd5b3480156032575f80fd5b506039603b565b005b3373ffffffffffffffffffffffffffffffffffffffff16fffea26469706673582212202f4e47be696e17248a3c4b7d33e5fceb6e9e98e36080fe65cd1962414006915e64736f6c634300081a0033",
			"opcodes": "PUSH1 0x80 PUSH1 0x40 MSTORE CALLVALUE DUP1 ISZERO PUSH1 0xE JUMPI PUSH0 DUP1 REVERT JUMPDEST POP PUSH1 0x8A DUP1 PUSH1 0x1A PUSH0 CODECOPY PUSH0 RETURN INVALID PUSH1 0x80 PUSH1 0x40 MSTORE PUSH1 0x4 CALLDATASIZE LT PUSH1 0x1E JUMPI PUSH0 CALLDATALOAD PUSH1 0xE0 SHR DUP1 PUSH4 0x85474728 EQ PUSH1 0x28 JUMPI PUSH1 0x24 JUMP JUMPDEST CALLDATASIZE PUSH1 0x24 JUMPI STOP JUMPDEST PUSH0 DUP1 REVERT JUMPDEST CALLVALUE DUP1 ISZERO PUSH1 0x32 JUMPI PUSH0 DUP1 REVERT JUMPDEST POP PUSH1 0x39 PUSH1 0x3B JUMP JUMPDEST STOP JUMPDEST CALLER PUSH20 0xFFFFFFFFFFFFFFFFFFFFFFFFFFFFFFFFFFFFFFFF AND SELFDESTRUCT INVALID LOG2 PUSH5 0x6970667358 0x22 SLT KECCAK256 0x2F 0x4E SELFBALANCE 0xBE PUSH10 0x6E17248A3C4B7D33E5FC 0xEB PUSH15 0x9E98E36080FE65CD1962414006915E PUSH5 0x736F6C6343 STOP ADDMOD BYTE STOP CALLER "
		},
		"gasEstimates": {
			"creation": {
				"codeDepositCost": "27600",
				"executionCost": "79",
				"totalCost": "27679"
			},
			"external": {
				"destroySmartContract()": "27720"
			}
		},
		"methodIdentifiers": {
			"destroySmartContract()": "85474728"
		}
	},
	"abi": [
		{
			"inputs": [],
			"name": "destroySmartContract",
			"outputs": [],
			"stateMutability": "nonpayable",
			"type": "function"
		},
		{
			"stateMutability": "payable",
			"type": "receive"
		}
	]
}